{
  "abi": [
    {
      "type": "constructor",
      "inputs": [
        {
          "name": "_nonfungiblePositionManager",
          "type": "address",
          "internalType": "contract INonfungiblePositionManager"
        },
        {
          "name": "_zeroxRouter",
          "type": "address",
          "internalType": "address"
        },
        {
          "name": "_universalRouter",
          "type": "address",
          "internalType": "address"
        }
      ],
      "stateMutability": "nonpayable"
    },
    {
      "type": "function",
      "name": "factory",
      "inputs": [],
      "outputs": [
        {
          "name": "",
          "type": "address",
          "internalType": "address"
        }
      ],
      "stateMutability": "view"
    },
    {
      "type": "function",
      "name": "liquidate",
      "inputs": [
        {
          "name": "params",
          "type": "tuple",
          "internalType": "struct FlashloanLiquidator.LiquidateParams",
          "components": [
            {
              "name": "tokenId",
              "type": "uint256",
              "internalType": "uint256"
            },
            {
              "name": "vault",
              "type": "address",
              "internalType": "contract IVault"
            },
            {
              "name": "flashLoanPool",
              "type": "address",
              "internalType": "contract IUniswapV3Pool"
            },
            {
              "name": "amount0In",
              "type": "uint256",
              "internalType": "uint256"
            },
            {
              "name": "swapData0",
              "type": "bytes",
              "internalType": "bytes"
            },
            {
              "name": "amount1In",
              "type": "uint256",
              "internalType": "uint256"
            },
            {
              "name": "swapData1",
              "type": "bytes",
              "internalType": "bytes"
            },
            {
              "name": "minReward",
              "type": "uint256",
              "internalType": "uint256"
            },
            {
              "name": "deadline",
              "type": "uint256",
              "internalType": "uint256"
            }
          ]
        }
      ],
      "outputs": [],
      "stateMutability": "nonpayable"
    },
    {
      "type": "function",
      "name": "nonfungiblePositionManager",
      "inputs": [],
      "outputs": [
        {
          "name": "",
          "type": "address",
          "internalType": "contract INonfungiblePositionManager"
        }
      ],
      "stateMutability": "view"
    },
    {
      "type": "function",
      "name": "uniswapV3FlashCallback",
      "inputs": [
        {
          "name": "fee0",
          "type": "uint256",
          "internalType": "uint256"
        },
        {
          "name": "fee1",
          "type": "uint256",
          "internalType": "uint256"
        },
        {
          "name": "callbackData",
          "type": "bytes",
          "internalType": "bytes"
        }
      ],
      "outputs": [],
      "stateMutability": "nonpayable"
    },
    {
      "type": "function",
      "name": "uniswapV3SwapCallback",
      "inputs": [
        {
          "name": "amount0Delta",
          "type": "int256",
          "internalType": "int256"
        },
        {
          "name": "amount1Delta",
          "type": "int256",
          "internalType": "int256"
        },
        {
          "name": "data",
          "type": "bytes",
          "internalType": "bytes"
        }
      ],
      "outputs": [],
      "stateMutability": "nonpayable"
    },
    {
      "type": "function",
      "name": "universalRouter",
      "inputs": [],
      "outputs": [
        {
          "name": "",
          "type": "address",
          "internalType": "address"
        }
      ],
      "stateMutability": "view"
    },
    {
      "type": "function",
      "name": "weth",
      "inputs": [],
      "outputs": [
        {
          "name": "",
          "type": "address",
          "internalType": "contract IWETH9"
        }
      ],
      "stateMutability": "view"
    },
    {
      "type": "function",
      "name": "zeroxRouter",
      "inputs": [],
      "outputs": [
        {
          "name": "",
          "type": "address",
          "internalType": "address"
        }
      ],
      "stateMutability": "view"
    },
    {
      "type": "event",
      "name": "Swap",
      "inputs": [
        {
          "name": "tokenIn",
          "type": "address",
          "indexed": true,
          "internalType": "address"
        },
        {
          "name": "tokenOut",
          "type": "address",
          "indexed": true,
          "internalType": "address"
        },
        {
          "name": "amountIn",
          "type": "uint256",
          "indexed": false,
          "internalType": "uint256"
        },
        {
          "name": "amountOut",
          "type": "uint256",
          "indexed": false,
          "internalType": "uint256"
        }
      ],
      "anonymous": false
    },
    {
      "type": "error",
      "name": "AmountError",
      "inputs": []
    },
    {
      "type": "error",
      "name": "ChainlinkPriceError",
      "inputs": []
    },
    {
      "type": "error",
      "name": "CollateralFactorExceedsMax",
      "inputs": []
    },
    {
      "type": "error",
      "name": "CollateralFail",
      "inputs": []
    },
    {
      "type": "error",
      "name": "CollateralValueLimit",
      "inputs": []
    },
    {
      "type": "error",
      "name": "CollectError",
      "inputs": []
    },
    {
      "type": "error",
      "name": "DailyDebtIncreaseLimit",
      "inputs": []
    },
    {
      "type": "error",
      "name": "DailyLendIncreaseLimit",
      "inputs": []
    },
    {
      "type": "error",
      "name": "DebtChanged",
      "inputs": []
    },
    {
      "type": "error",
      "name": "EtherSendFailed",
      "inputs": []
    },
    {
      "type": "error",
      "name": "ExceedsMaxReward",
      "inputs": []
    },
    {
      "type": "error",
      "name": "GlobalDebtLimit",
      "inputs": []
    },
    {
      "type": "error",
      "name": "GlobalLendLimit",
      "inputs": []
    },
    {
      "type": "error",
      "name": "InsufficientLiquidity",
      "inputs": []
    },
    {
      "type": "error",
      "name": "InterestNotUpdated",
      "inputs": []
    },
    {
      "type": "error",
      "name": "InvalidConfig",
      "inputs": []
    },
    {
      "type": "error",
      "name": "InvalidPool",
      "inputs": []
    },
    {
      "type": "error",
      "name": "InvalidToken",
      "inputs": []
    },
    {
      "type": "error",
      "name": "MinLoanSize",
      "inputs": []
    },
    {
      "type": "error",
      "name": "MissingSwapData",
      "inputs": []
    },
    {
      "type": "error",
      "name": "NeedsRepay",
      "inputs": []
    },
    {
      "type": "error",
      "name": "NoEtherToken",
      "inputs": []
    },
    {
      "type": "error",
      "name": "NoLiquidity",
      "inputs": []
    },
    {
      "type": "error",
      "name": "NoSharesRepayed",
      "inputs": []
    },
    {
      "type": "error",
      "name": "NotConfigured",
      "inputs": []
    },
    {
      "type": "error",
      "name": "NotEnoughReward",
      "inputs": []
    },
    {
      "type": "error",
      "name": "NotLiquidatable",
      "inputs": []
    },
    {
      "type": "error",
      "name": "NotReady",
      "inputs": []
    },
    {
      "type": "error",
      "name": "NotSupportedFeeTier",
      "inputs": []
    },
    {
      "type": "error",
      "name": "NotSupportedWhatToDo",
      "inputs": []
    },
    {
      "type": "error",
      "name": "NotWETH",
      "inputs": []
    },
    {
      "type": "error",
      "name": "PriceDifferenceExceeded",
      "inputs": []
    },
    {
      "type": "error",
      "name": "Reentrancy",
      "inputs": []
    },
    {
      "type": "error",
      "name": "SameRange",
      "inputs": []
    },
    {
      "type": "error",
      "name": "SameToken",
      "inputs": []
    },
    {
      "type": "error",
      "name": "SelfSend",
      "inputs": []
    },
    {
      "type": "error",
      "name": "SequencerDown",
      "inputs": []
    },
    {
      "type": "error",
      "name": "SequencerGracePeriodNotOver",
      "inputs": []
    },
    {
      "type": "error",
      "name": "SlippageError",
      "inputs": []
    },
    {
      "type": "error",
      "name": "SwapAmountTooLarge",
      "inputs": []
    },
    {
      "type": "error",
      "name": "SwapFailed",
      "inputs": []
    },
    {
      "type": "error",
      "name": "TWAPCheckFailed",
      "inputs": []
    },
    {
      "type": "error",
      "name": "TooMuchEtherSent",
      "inputs": []
    },
    {
      "type": "error",
      "name": "TransferError",
      "inputs": []
    },
    {
      "type": "error",
      "name": "TransformFailed",
      "inputs": []
    },
    {
      "type": "error",
      "name": "TransformNotAllowed",
      "inputs": []
    },
    {
      "type": "error",
      "name": "Unauthorized",
      "inputs": []
    },
    {
      "type": "error",
      "name": "WrongContract",
      "inputs": []
    }
  ],
  "bytecode": {
    "object": "0x610120604081815234620001725760608262001e048038038091620000258285620001d7565b833981010312620001725781516001600160a01b03808216939190848203620001725760209062000065856200005d84870162000211565b950162000211565b9585516312a9293f60e21b81528381600481855afa908115620001cc57908492916000916200018a575b50926004931660805286519283809263c45a015560e01b82525afa9182156200017f576000926200013c575b505060a05260c05260e05261010091825251611bdd918262000227833960805182610dc0015260a0518281816101e201526107be015260c05182818161080301526108d8015260e051828181608e015281816113a30152611492015251818181610e0301528181611662015281816117a6015281816117db01526118750152f35b90809250813d831162000177575b620001568183620001d7565b8101031262000172576200016a9062000211565b3880620000bb565b600080fd5b503d6200014a565b85513d6000823e3d90fd5b83819492503d8311620001c4575b620001a48183620001d7565b810103126200017257600492620001bc859362000211565b90936200008f565b503d62000198565b87513d6000823e3d90fd5b601f909101601f19168101906001600160401b03821190821017620001fb57604052565b634e487b7160e01b600052604160045260246000fd5b51906001600160a01b0382168203620001725756fe608080604052600436101561001357600080fd5b600090813560e01c90816335a9e4df14610def575080633fc8cef314610daa578063b39cad6e14610832578063b44a2722146107ed578063c45a0155146107a8578063e9cbafb0146102a3578063fa461e33146100c05763faba44631461007957600080fd5b346100bd57806003193601126100bd576040517f00000000000000000000000000000000000000000000000000000000000000006001600160a01b03168152602090f35b80fd5b50346100bd5760603660031901126100bd576004356024356044356001600160401b03811161029f576100f7903690600401610e32565b92909184821393848015610296575b1561029257836060918101031261028e5761012083611066565b604061012e60208601611066565b94013562ffffff811680910361028a57604080516001600160a01b03938416968416928792909184918b9161016281610ebd565b828152826020820152015283881161027f575b50806040858082519561018787610ebd565b1695868652169384602082015201528183101561027b57604051916020830193845260408301526060820152606081526101c081610ed8565b519020604051602081019160ff60f81b83526bffffffffffffffffffffffff197f000000000000000000000000000000000000000000000000000000000000000060601b16602183015260358201527fe34f199b19b2b4f47f68442619d555527d244f78a3297ea89325f843f87b8b5460558201526055815261024281610ed8565b51902016330361026a5761025f93156102625750905b33906119ca565b80f35b905090610258565b6040516282b42960e81b8152600490fd5b8880fd5b879350915038610175565b8680fd5b8480fd5b8580fd5b50858213610106565b8380fd5b50346100bd5760603660031901126100bd576001600160401b036044358181116107a4576102d5903690600401610e32565b8101919060208184031261029f5780359082821161028e5701906101208284031261029f576040519261030784610e8e565b823584526020808401359085015260408301356001600160a01b038116810361029257604085015261033b60608401611066565b60608501526080830135828111610292578161035891850161107a565b608085015260a0830135908282116102925761037591840161107a565b60a084015260c08201356001600160a01b038116810361028e5760c084015260e08281013590840152610100918201359183019182526060830151604084015160208501516103d29290916001600160a01b03908116911661111f565b60018060a01b0360408401511683519060406080860151015193604060a087015101519051946040519360c085018581108782111761078e57604052845260208401526040830152306060830152604051928360208101109060208501111761078e5782866104ac9360206040960186528183526080810192835260a081019687528551968795869485936325908dc360e21b8552602060048601528051602486015260208101516044860152898101516064860152606060018060a01b039101511660848501525160c060a485015260e4840190610ffa565b905160c483015203925af1801561063a5761075f575b50606081015160408201516104e3916001600160a01b0391821691166111f5565b6104f060808201516112af565b50506104ff60a08201516112af565b505060608101516020820151610539916001600160a01b0316906105319061052b6024356004356110fc565b906110fc565b9033906119ca565b60808101515160608201516001600160a01b03918216911681036106d2575b5060a08101515160608201516001600160a01b0391821691168103610645575b5060608101516040516370a0823160e01b815230600482015290602090829060249082906001600160a01b03165afa90811561063a578391610603575b5060e082015181106105f157806105ca578280f35b606082015160c0909201516105eb926001600160a01b0391821691166119ca565b38808280f35b60405163193a582f60e31b8152600490fd5b90506020813d602011610632575b8161061e60209383610ef3565b8101031261062d5751386105b5565b600080fd5b3d9150610611565b6040513d85823e3d90fd5b6020602491604051928380926370a0823160e01b82523060048301525afa90811561063a5783916106a0575b5080156105785760a08201515160c083015161069a92916001600160a01b0391821691166119ca565b38610578565b90506020813d6020116106ca575b816106bb60209383610ef3565b8101031261062d575138610671565b3d91506106ae565b6020602491604051928380926370a0823160e01b82523060048301525afa90811561063a57839161072d575b5080156105585760808201515160c083015161072792916001600160a01b0391821691166119ca565b38610558565b90506020813d602011610757575b8161074860209383610ef3565b8101031261062d5751386106fe565b3d915061073b565b604090813d8311610787575b6107758183610ef3565b8101031261078357386104c2565b5080fd5b503d61076b565b634e487b7160e01b600052604160045260246000fd5b8280fd5b50346100bd57806003193601126100bd576040517f00000000000000000000000000000000000000000000000000000000000000006001600160a01b03168152602090f35b50346100bd57806003193601126100bd576040517f00000000000000000000000000000000000000000000000000000000000000006001600160a01b03168152602090f35b50346100bd57600319602036820112610783576001600160401b03600435116107835761012090600435360301126100bd57602460a06001600160a01b0361087d6004358401610e5f565b16604051928380926341a4eb5f60e11b82526004356004013560048301525afa908115610bf7578291610d75575b508015610d635760405163133f757160e31b815260048035810135908201529082906101809081846024817f00000000000000000000000000000000000000000000000000000000000000006001600160a01b03165afa801561063a5783928491610ca2575b506004945060206001600160a01b0361092d8735602401610e5f565b16604051968780926338d52e0f60e01b82525afa948515610c97578495610c57575b506004919060206001600160a01b0361096b8535604401610e5f565b1660405194858092630dfe168160e01b82525afa928315610c4c578593610c10575b5061099c602460043501610e5f565b936109ef6109b4608460043501600435600401610f53565b604051936109c185610e73565b6001600160a01b0390811685528a166020850152600435606401356040850152606084018990523691610fa0565b6080820152610a46610a0b60c460043501600435600401610f53565b60405194610a1886610e73565b6001600160a01b0390811686528a16602086015260043560a401356040860152606085018990523691610fa0565b608083015260405194610a5886610e8e565b60043560040135865283602087015260018060a01b0316604086015260018060a01b0387166060860152608085015260a08401523360c084015260e4600435013560e08401526101046004350135610100840152610b5a6040518094602080830152805160408301526020810151606083015260018060a01b03604082015116608083015260018060a01b0360608201511660a0830152610100610b26610b10608084015161012060c087015261016086019061101f565b60a0840151858203603f190160e087015261101f565b60c08301516001600160a01b03168483015260e083015161012085015291015161014083015203601f198101855284610ef3565b6001600160a01b03610b70600435604401610e5f565b16916001600160a01b0380821690871603610c095781955b6001600160a01b03918216911614610c02575b813b1561029f5783610bdc95604051968795869485936312439b2f60e21b855230600486015260248501526044840152608060648401526084830190610ffa565b03925af18015610bf757610bee575080f35b61025f90610eaa565b6040513d84823e3d90fd5b5082610b9b565b8495610b88565b9092506020813d602011610c44575b81610c2c60209383610ef3565b8101031261028e57610c3d90610f14565b913861098d565b3d9150610c1f565b6040513d87823e3d90fd5b919094506020823d602011610c8f575b81610c7460209383610ef3565b8101031261029f57610c87600492610f14565b94909161094f565b3d9150610c67565b6040513d86823e3d90fd5b809293508591503d8311610d5c575b610cbb8183610ef3565b810103126107835782516bffffffffffffffffffffffff81160361078357610ce560208401610f14565b50610cf260408401610f14565b90610cff60608501610f14565b91608085015162ffffff81160361029f57610d5461016086610d2560a060049901610f28565b50610d3260c08201610f28565b50610d3f60e08201610f36565b50610d4d6101408201610f36565b5001610f36565b509138610911565b503d610cb1565b604051636ef5bcdd60e11b8152600490fd5b905060a0813d60a011610da2575b81610d9060a09383610ef3565b810103126107835760600151386108ab565b3d9150610d83565b50346100bd57806003193601126100bd576040517f00000000000000000000000000000000000000000000000000000000000000006001600160a01b03168152602090f35b9050346107835781600319360112610783577f00000000000000000000000000000000000000000000000000000000000000006001600160a01b03168152602090f35b9181601f8401121561062d578235916001600160401b03831161062d576020838186019501011161062d57565b356001600160a01b038116810361062d5790565b60a081019081106001600160401b0382111761078e57604052565b61012081019081106001600160401b0382111761078e57604052565b6001600160401b03811161078e57604052565b606081019081106001600160401b0382111761078e57604052565b608081019081106001600160401b0382111761078e57604052565b90601f801991011681019081106001600160401b0382111761078e57604052565b51906001600160a01b038216820361062d57565b51908160020b820361062d57565b51906fffffffffffffffffffffffffffffffff8216820361062d57565b903590601e198136030182121561062d57018035906001600160401b03821161062d5760200191813603831361062d57565b6001600160401b03811161078e57601f01601f191660200190565b929192610fac82610f85565b91610fba6040519384610ef3565b82948184528183011161062d578281602093846000960137010152565b60005b838110610fea5750506000910152565b8181015183820152602001610fda565b9060209161101381518092818552858086019101610fd7565b601f01601f1916010190565b9060a0608061106393600180841b03808251168552602082015116602085015260408101516040850152606081015160608501520151918160808201520190610ffa565b90565b35906001600160a01b038216820361062d57565b919060a08382031261062d576040519061109382610e73565b819361109e81611066565b83526110ac60208201611066565b602084015260408101356040840152606081013560608401526080810135906001600160401b03821161062d570181601f8201121561062d576080918160206110f793359101610fa0565b910152565b9190820180921161110957565b634e487b7160e01b600052601160045260246000fd5b604051636eb1769f60e11b81523060048201526001600160a01b0383811660248301529093906020908590604490829086165afa9384156111e9576000946111b3575b506111736111ac916111b1956110fc565b60405163095ea7b360e01b60208201526001600160a01b039094166024850152604484015282606481015b03601f198101845283610ef3565b611a03565b565b93506020843d6020116111e1575b816111ce60209383610ef3565b8101031261062d57925192611173611162565b3d91506111c1565b6040513d6000823e3d90fd5b60405163095ea7b360e01b60208201526001600160a01b039092166024830152600060448084019190915282526111b191906111ac82610ed8565b81601f8201121561062d57805161124681610f85565b926112546040519485610ef3565b8184526020828401011161062d576110639160208085019101610fd7565b3d1561129d573d9061128382610f85565b916112916040519384610ef3565b82523d6000602084013e565b606090565b9190820391821161110957565b60009160009160009060408101511515806119bc575b806119a6575b6112d3575050565b80516040516370a0823160e01b8152306004820152929550909350602090829060249082906001600160a01b03165afa9081156111e957600091611974575b506020838101516040516370a0823160e01b81523060048201529190829060249082906001600160a01b03165afa9081156111e957600091611942575b5060808401518051810160408282031261062d5760208201516001600160a01b038116929083900361062d576040810151916001600160401b03831161062d576113a0926020809201920101611230565b907f00000000000000000000000000000000000000000000000000000000000000006001600160a01b031681036116605750805181019060208183031261028a576020810151916001600160401b03831161165c57604083830182031261165c57604051928360408101106001600160401b0360408601111761078e57889260408501604052611434602083830101610f14565b855260408282010151926001600160401b03841161028e57849361146093602080930193010101611230565b602084019081528751845160408a01516114889290916001600160a01b03908116911661111f565b51602081519101827f00000000000000000000000000000000000000000000000000000000000000005af16114bb611272565b501561164a57845190516114db916001600160a01b0391821691166111f5565b83516040516370a0823160e01b815230600482015290602090829060249082906001600160a01b03165afa90811561163f57869161160c575b50611521906024936112a2565b6020858101516040516370a0823160e01b815230600482015292979294859182906001600160a01b03165afa90811561160057906115cc575b61156492506112a2565b91606081015183106115ba5760018060a01b0381511690602060018060a01b0391015116907ffa2dda1cc1b86e41239702756b13effbc1a092b5c57e3ad320fbe4f3b13fe23560408051878152866020820152a3565b604051630d4205a160e11b8152600490fd5b506020823d6020116115f8575b816115e660209383610ef3565b8101031261062d57611564915161155a565b3d91506115d9565b604051903d90823e3d90fd5b90506020813d602011611637575b8161162760209383610ef3565b8101031261062d57516024611514565b3d915061161a565b6040513d88823e3d90fd5b60405163081ceff360e41b8152600490fd5b8780fd5b7f00000000000000000000000000000000000000000000000000000000000000006001600160a01b03160361193057805181019060208183031261062d5760208101516001600160401b03811161062d57606081830184031261062d57604051916116ca83610ebd565b602082820101516001600160401b03811161062d576116f3906020808701918585010101611230565b835260408282010151936001600160401b03851161062d5760208101603f868585010101121561062d57602085848401010151946001600160401b03861161078e578560051b906040519661174b6020840189610ef3565b87526020870160208401604084848989010101011161062d576040828787010101905b6040848489890101010182106118f757505050505060208301938452016060015160408083019182528751908801519192916117d4917f0000000000000000000000000000000000000000000000000000000000000000906001600160a01b03166119ca565b51915190517f00000000000000000000000000000000000000000000000000000000000000006001600160a01b03163b1561062d57604051630d64d59360e21b8152606060048201529290918391611830906064840190610ffa565b600319838203016024840152815180825260208201916020808360051b8301019401926000915b8383106118c4575050505060448301939093526000925081900381837f00000000000000000000000000000000000000000000000000000000000000006001600160a01b03165af180156111e9576118b0575b506114db565b6118bb919550610eaa565b600093386118aa565b919396955091936020806118e4600193601f198682030187528a51610ffa565b9801930193019092879596949293611857565b8151906001600160401b03821161062d57602080916119238960408096898e878e019401010101611230565b815201920191905061176e565b604051630d348b9b60e41b8152600490fd5b90506020813d60201161196c575b8161195d60209383610ef3565b8101031261062d57513861134f565b3d9150611950565b90506020813d60201161199e575b8161198f60209383610ef3565b8101031261062d575138611312565b3d9150611982565b5060208101516001600160a01b031615156112cb565b5060808101515115156112c5565b60405163a9059cbb60e01b60208201526001600160a01b03909216602483015260448201929092526111b1916111ac826064810161119e565b60018060a01b03169060405160408101908082106001600160401b0383111761078e57611a74916040526020938482527f5361666545524332303a206c6f772d6c6576656c2063616c6c206661696c6564858301526000808587829751910182855af1611a6e611272565b91611b0a565b805191821591848315611ae6575b505050905015611a8f5750565b6084906040519062461bcd60e51b82526004820152602a60248201527f5361666545524332303a204552433230206f7065726174696f6e20646964206e6044820152691bdd081cdd58d8d9595960b21b6064820152fd5b919381809450010312610783578201519081151582036100bd575080388084611a82565b91929015611b6c5750815115611b1e575090565b3b15611b275790565b60405162461bcd60e51b815260206004820152601d60248201527f416464726573733a2063616c6c20746f206e6f6e2d636f6e74726163740000006044820152606490fd5b825190915015611b7f5750805190602001fd5b60405162461bcd60e51b815260206004820152908190611ba3906024830190610ffa565b0390fdfea26469706673582212207a9023f0639847d419ff7dca88c0979c4c30383240150654fab5e2da56ab985764736f6c63430008180033",
    "linkReferences": {}
  },
  "methodIdentifiers": {
    "factory()": "c45a0155",
    "liquidate((uint256,address,address,uint256,bytes,uint256,bytes,uint256,uint256))": "b39cad6e",
    "nonfungiblePositionManager()": "b44a2722",
    "uniswapV3FlashCallback(uint256,uint256,bytes)": "e9cbafb0",
    "uniswapV3SwapCallback(int256,int256,bytes)": "fa461e33",
    "universalRouter()": "35a9e4df",
    "weth()": "3fc8cef3",
    "zeroxRouter()": "faba4463"
  },
  "id": 68
}