{
  "abi": [
    {
      "type": "constructor",
      "inputs": [
        {
          "name": "name",
          "type": "string",
          "internalType": "string"
        },
        {
          "name": "symbol",
          "type": "string",
          "internalType": "string"
        },
        {
          "name": "_asset",
          "type": "address",
          "internalType": "address"
        },
        {
          "name": "_nonfungiblePositionManager",
          "type": "address",
          "internalType": "contract INonfungiblePositionManager"
        },
        {
          "name": "_interestRateModel",
          "type": "address",
          "internalType": "contract IInterestRateModel"
        },
        {
          "name": "_oracle",
          "type": "address",
          "internalType": "contract IV3Oracle"
        },
        {
          "name": "_permit2",
          "type": "address",
          "internalType": "contract IPermit2"
        }
      ],
      "stateMutability": "nonpayable"
    },
    {
      "type": "function",
      "name": "BORROW_SAFETY_BUFFER_X32",
      "inputs": [],
      "outputs": [
        {
          "name": "",
          "type": "uint256",
          "internalType": "uint256"
        }
      ],
      "stateMutability": "view"
    },
    {
      "type": "function",
      "name": "MAX_COLLATERAL_FACTOR_X32",
      "inputs": [],
      "outputs": [
        {
          "name": "",
          "type": "uint32",
          "internalType": "uint32"
        }
      ],
      "stateMutability": "view"
    },
    {
      "type": "function",
      "name": "MAX_DAILY_DEBT_INCREASE_X32",
      "inputs": [],
      "outputs": [
        {
          "name": "",
          "type": "uint32",
          "internalType": "uint32"
        }
      ],
      "stateMutability": "view"
    },
    {
      "type": "function",
      "name": "MAX_DAILY_LEND_INCREASE_X32",
      "inputs": [],
      "outputs": [
        {
          "name": "",
          "type": "uint32",
          "internalType": "uint32"
        }
      ],
      "stateMutability": "view"
    },
    {
      "type": "function",
      "name": "MAX_LIQUIDATION_PENALTY_X32",
      "inputs": [],
      "outputs": [
        {
          "name": "",
          "type": "uint32",
          "internalType": "uint32"
        }
      ],
      "stateMutability": "view"
    },
    {
      "type": "function",
      "name": "MIN_LIQUIDATION_PENALTY_X32",
      "inputs": [],
      "outputs": [
        {
          "name": "",
          "type": "uint32",
          "internalType": "uint32"
        }
      ],
      "stateMutability": "view"
    },
    {
      "type": "function",
      "name": "MIN_RESERVE_PROTECTION_FACTOR_X32",
      "inputs": [],
      "outputs": [
        {
          "name": "",
          "type": "uint32",
          "internalType": "uint32"
        }
      ],
      "stateMutability": "view"
    },
    {
      "type": "function",
      "name": "acceptOwnership",
      "inputs": [],
      "outputs": [],
      "stateMutability": "nonpayable"
    },
    {
      "type": "function",
      "name": "allowance",
      "inputs": [
        {
          "name": "owner",
          "type": "address",
          "internalType": "address"
        },
        {
          "name": "spender",
          "type": "address",
          "internalType": "address"
        }
      ],
      "outputs": [
        {
          "name": "",
          "type": "uint256",
          "internalType": "uint256"
        }
      ],
      "stateMutability": "view"
    },
    {
      "type": "function",
      "name": "approve",
      "inputs": [
        {
          "name": "spender",
          "type": "address",
          "internalType": "address"
        },
        {
          "name": "amount",
          "type": "uint256",
          "internalType": "uint256"
        }
      ],
      "outputs": [
        {
          "name": "",
          "type": "bool",
          "internalType": "bool"
        }
      ],
      "stateMutability": "nonpayable"
    },
    {
      "type": "function",
      "name": "approveTransform",
      "inputs": [
        {
          "name": "tokenId",
          "type": "uint256",
          "internalType": "uint256"
        },
        {
          "name": "target",
          "type": "address",
          "internalType": "address"
        },
        {
          "name": "isActive",
          "type": "bool",
          "internalType": "bool"
        }
      ],
      "outputs": [],
      "stateMutability": "nonpayable"
    },
    {
      "type": "function",
      "name": "asset",
      "inputs": [],
      "outputs": [
        {
          "name": "",
          "type": "address",
          "internalType": "address"
        }
      ],
      "stateMutability": "view"
    },
    {
      "type": "function",
      "name": "balanceOf",
      "inputs": [
        {
          "name": "account",
          "type": "address",
          "internalType": "address"
        }
      ],
      "outputs": [
        {
          "name": "",
          "type": "uint256",
          "internalType": "uint256"
        }
      ],
      "stateMutability": "view"
    },
    {
      "type": "function",
      "name": "borrow",
      "inputs": [
        {
          "name": "tokenId",
          "type": "uint256",
          "internalType": "uint256"
        },
        {
          "name": "assets",
          "type": "uint256",
          "internalType": "uint256"
        }
      ],
      "outputs": [],
      "stateMutability": "nonpayable"
    },
    {
      "type": "function",
      "name": "convertToAssets",
      "inputs": [
        {
          "name": "shares",
          "type": "uint256",
          "internalType": "uint256"
        }
      ],
      "outputs": [
        {
          "name": "assets",
          "type": "uint256",
          "internalType": "uint256"
        }
      ],
      "stateMutability": "view"
    },
    {
      "type": "function",
      "name": "convertToShares",
      "inputs": [
        {
          "name": "assets",
          "type": "uint256",
          "internalType": "uint256"
        }
      ],
      "outputs": [
        {
          "name": "shares",
          "type": "uint256",
          "internalType": "uint256"
        }
      ],
      "stateMutability": "view"
    },
    {
      "type": "function",
      "name": "create",
      "inputs": [
        {
          "name": "tokenId",
          "type": "uint256",
          "internalType": "uint256"
        },
        {
          "name": "recipient",
          "type": "address",
          "internalType": "address"
        }
      ],
      "outputs": [],
      "stateMutability": "nonpayable"
    },
    {
      "type": "function",
      "name": "createWithPermit",
      "inputs": [
        {
          "name": "tokenId",
          "type": "uint256",
          "internalType": "uint256"
        },
        {
          "name": "recipient",
          "type": "address",
          "internalType": "address"
        },
        {
          "name": "deadline",
          "type": "uint256",
          "internalType": "uint256"
        },
        {
          "name": "v",
          "type": "uint8",
          "internalType": "uint8"
        },
        {
          "name": "r",
          "type": "bytes32",
          "internalType": "bytes32"
        },
        {
          "name": "s",
          "type": "bytes32",
          "internalType": "bytes32"
        }
      ],
      "outputs": [],
      "stateMutability": "nonpayable"
    },
    {
      "type": "function",
      "name": "dailyDebtIncreaseLimitLastReset",
      "inputs": [],
      "outputs": [
        {
          "name": "",
          "type": "uint32",
          "internalType": "uint32"
        }
      ],
      "stateMutability": "view"
    },
    {
      "type": "function",
      "name": "dailyDebtIncreaseLimitLeft",
      "inputs": [],
      "outputs": [
        {
          "name": "",
          "type": "uint256",
          "internalType": "uint256"
        }
      ],
      "stateMutability": "view"
    },
    {
      "type": "function",
      "name": "dailyDebtIncreaseLimitMin",
      "inputs": [],
      "outputs": [
        {
          "name": "",
          "type": "uint256",
          "internalType": "uint256"
        }
      ],
      "stateMutability": "view"
    },
    {
      "type": "function",
      "name": "dailyLendIncreaseLimitLastReset",
      "inputs": [],
      "outputs": [
        {
          "name": "",
          "type": "uint32",
          "internalType": "uint32"
        }
      ],
      "stateMutability": "view"
    },
    {
      "type": "function",
      "name": "dailyLendIncreaseLimitLeft",
      "inputs": [],
      "outputs": [
        {
          "name": "",
          "type": "uint256",
          "internalType": "uint256"
        }
      ],
      "stateMutability": "view"
    },
    {
      "type": "function",
      "name": "dailyLendIncreaseLimitMin",
      "inputs": [],
      "outputs": [
        {
          "name": "",
          "type": "uint256",
          "internalType": "uint256"
        }
      ],
      "stateMutability": "view"
    },
    {
      "type": "function",
      "name": "debtSharesTotal",
      "inputs": [],
      "outputs": [
        {
          "name": "",
          "type": "uint256",
          "internalType": "uint256"
        }
      ],
      "stateMutability": "view"
    },
    {
      "type": "function",
      "name": "decimals",
      "inputs": [],
      "outputs": [
        {
          "name": "",
          "type": "uint8",
          "internalType": "uint8"
        }
      ],
      "stateMutability": "view"
    },
    {
      "type": "function",
      "name": "decreaseAllowance",
      "inputs": [
        {
          "name": "spender",
          "type": "address",
          "internalType": "address"
        },
        {
          "name": "subtractedValue",
          "type": "uint256",
          "internalType": "uint256"
        }
      ],
      "outputs": [
        {
          "name": "",
          "type": "bool",
          "internalType": "bool"
        }
      ],
      "stateMutability": "nonpayable"
    },
    {
      "type": "function",
      "name": "decreaseLiquidityAndCollect",
      "inputs": [
        {
          "name": "params",
          "type": "tuple",
          "internalType": "struct IVault.DecreaseLiquidityAndCollectParams",
          "components": [
            {
              "name": "tokenId",
              "type": "uint256",
              "internalType": "uint256"
            },
            {
              "name": "liquidity",
              "type": "uint128",
              "internalType": "uint128"
            },
            {
              "name": "amount0Min",
              "type": "uint256",
              "internalType": "uint256"
            },
            {
              "name": "amount1Min",
              "type": "uint256",
              "internalType": "uint256"
            },
            {
              "name": "feeAmount0",
              "type": "uint128",
              "internalType": "uint128"
            },
            {
              "name": "feeAmount1",
              "type": "uint128",
              "internalType": "uint128"
            },
            {
              "name": "deadline",
              "type": "uint256",
              "internalType": "uint256"
            },
            {
              "name": "recipient",
              "type": "address",
              "internalType": "address"
            }
          ]
        }
      ],
      "outputs": [
        {
          "name": "amount0",
          "type": "uint256",
          "internalType": "uint256"
        },
        {
          "name": "amount1",
          "type": "uint256",
          "internalType": "uint256"
        }
      ],
      "stateMutability": "nonpayable"
    },
    {
      "type": "function",
      "name": "deposit",
      "inputs": [
        {
          "name": "assets",
          "type": "uint256",
          "internalType": "uint256"
        },
        {
          "name": "receiver",
          "type": "address",
          "internalType": "address"
        }
      ],
      "outputs": [
        {
          "name": "",
          "type": "uint256",
          "internalType": "uint256"
        }
      ],
      "stateMutability": "nonpayable"
    },
    {
      "type": "function",
      "name": "deposit",
      "inputs": [
        {
          "name": "assets",
          "type": "uint256",
          "internalType": "uint256"
        },
        {
          "name": "receiver",
          "type": "address",
          "internalType": "address"
        },
        {
          "name": "permitData",
          "type": "bytes",
          "internalType": "bytes"
        }
      ],
      "outputs": [
        {
          "name": "",
          "type": "uint256",
          "internalType": "uint256"
        }
      ],
      "stateMutability": "nonpayable"
    },
    {
      "type": "function",
      "name": "emergencyAdmin",
      "inputs": [],
      "outputs": [
        {
          "name": "",
          "type": "address",
          "internalType": "address"
        }
      ],
      "stateMutability": "view"
    },
    {
      "type": "function",
      "name": "factory",
      "inputs": [],
      "outputs": [
        {
          "name": "",
          "type": "address",
          "internalType": "contract IUniswapV3Factory"
        }
      ],
      "stateMutability": "view"
    },
    {
      "type": "function",
      "name": "globalDebtLimit",
      "inputs": [],
      "outputs": [
        {
          "name": "",
          "type": "uint256",
          "internalType": "uint256"
        }
      ],
      "stateMutability": "view"
    },
    {
      "type": "function",
      "name": "globalLendLimit",
      "inputs": [],
      "outputs": [
        {
          "name": "",
          "type": "uint256",
          "internalType": "uint256"
        }
      ],
      "stateMutability": "view"
    },
    {
      "type": "function",
      "name": "increaseAllowance",
      "inputs": [
        {
          "name": "spender",
          "type": "address",
          "internalType": "address"
        },
        {
          "name": "addedValue",
          "type": "uint256",
          "internalType": "uint256"
        }
      ],
      "outputs": [
        {
          "name": "",
          "type": "bool",
          "internalType": "bool"
        }
      ],
      "stateMutability": "nonpayable"
    },
    {
      "type": "function",
      "name": "interestRateModel",
      "inputs": [],
      "outputs": [
        {
          "name": "",
          "type": "address",
          "internalType": "contract IInterestRateModel"
        }
      ],
      "stateMutability": "view"
    },
    {
      "type": "function",
      "name": "lastDebtExchangeRateX96",
      "inputs": [],
      "outputs": [
        {
          "name": "",
          "type": "uint256",
          "internalType": "uint256"
        }
      ],
      "stateMutability": "view"
    },
    {
      "type": "function",
      "name": "lastExchangeRateUpdate",
      "inputs": [],
      "outputs": [
        {
          "name": "",
          "type": "uint64",
          "internalType": "uint64"
        }
      ],
      "stateMutability": "view"
    },
    {
      "type": "function",
      "name": "lastLendExchangeRateX96",
      "inputs": [],
      "outputs": [
        {
          "name": "",
          "type": "uint256",
          "internalType": "uint256"
        }
      ],
      "stateMutability": "view"
    },
    {
      "type": "function",
      "name": "lendInfo",
      "inputs": [
        {
          "name": "account",
          "type": "address",
          "internalType": "address"
        }
      ],
      "outputs": [
        {
          "name": "amount",
          "type": "uint256",
          "internalType": "uint256"
        }
      ],
      "stateMutability": "view"
    },
    {
      "type": "function",
      "name": "liquidate",
      "inputs": [
        {
          "name": "params",
          "type": "tuple",
          "internalType": "struct IVault.LiquidateParams",
          "components": [
            {
              "name": "tokenId",
              "type": "uint256",
              "internalType": "uint256"
            },
            {
              "name": "amount0Min",
              "type": "uint256",
              "internalType": "uint256"
            },
            {
              "name": "amount1Min",
              "type": "uint256",
              "internalType": "uint256"
            },
            {
              "name": "recipient",
              "type": "address",
              "internalType": "address"
            },
            {
              "name": "permitData",
              "type": "bytes",
              "internalType": "bytes"
            },
            {
              "name": "deadline",
              "type": "uint256",
              "internalType": "uint256"
            }
          ]
        }
      ],
      "outputs": [
        {
          "name": "amount0",
          "type": "uint256",
          "internalType": "uint256"
        },
        {
          "name": "amount1",
          "type": "uint256",
          "internalType": "uint256"
        }
      ],
      "stateMutability": "nonpayable"
    },
    {
      "type": "function",
      "name": "loanAtIndex",
      "inputs": [
        {
          "name": "owner",
          "type": "address",
          "internalType": "address"
        },
        {
          "name": "index",
          "type": "uint256",
          "internalType": "uint256"
        }
      ],
      "outputs": [
        {
          "name": "",
          "type": "uint256",
          "internalType": "uint256"
        }
      ],
      "stateMutability": "view"
    },
    {
      "type": "function",
      "name": "loanCount",
      "inputs": [
        {
          "name": "owner",
          "type": "address",
          "internalType": "address"
        }
      ],
      "outputs": [
        {
          "name": "",
          "type": "uint256",
          "internalType": "uint256"
        }
      ],
      "stateMutability": "view"
    },
    {
      "type": "function",
      "name": "loanInfo",
      "inputs": [
        {
          "name": "tokenId",
          "type": "uint256",
          "internalType": "uint256"
        }
      ],
      "outputs": [
        {
          "name": "debt",
          "type": "uint256",
          "internalType": "uint256"
        },
        {
          "name": "fullValue",
          "type": "uint256",
          "internalType": "uint256"
        },
        {
          "name": "collateralValue",
          "type": "uint256",
          "internalType": "uint256"
        },
        {
          "name": "liquidationCost",
          "type": "uint256",
          "internalType": "uint256"
        },
        {
          "name": "liquidationValue",
          "type": "uint256",
          "internalType": "uint256"
        }
      ],
      "stateMutability": "view"
    },
    {
      "type": "function",
      "name": "loans",
      "inputs": [
        {
          "name": "",
          "type": "uint256",
          "internalType": "uint256"
        }
      ],
      "outputs": [
        {
          "name": "debtShares",
          "type": "uint256",
          "internalType": "uint256"
        }
      ],
      "stateMutability": "view"
    },
    {
      "type": "function",
      "name": "maxDeposit",
      "inputs": [
        {
          "name": "",
          "type": "address",
          "internalType": "address"
        }
      ],
      "outputs": [
        {
          "name": "",
          "type": "uint256",
          "internalType": "uint256"
        }
      ],
      "stateMutability": "view"
    },
    {
      "type": "function",
      "name": "maxMint",
      "inputs": [
        {
          "name": "",
          "type": "address",
          "internalType": "address"
        }
      ],
      "outputs": [
        {
          "name": "",
          "type": "uint256",
          "internalType": "uint256"
        }
      ],
      "stateMutability": "view"
    },
    {
      "type": "function",
      "name": "maxRedeem",
      "inputs": [
        {
          "name": "owner",
          "type": "address",
          "internalType": "address"
        }
      ],
      "outputs": [
        {
          "name": "",
          "type": "uint256",
          "internalType": "uint256"
        }
      ],
      "stateMutability": "view"
    },
    {
      "type": "function",
      "name": "maxWithdraw",
      "inputs": [
        {
          "name": "owner",
          "type": "address",
          "internalType": "address"
        }
      ],
      "outputs": [
        {
          "name": "",
          "type": "uint256",
          "internalType": "uint256"
        }
      ],
      "stateMutability": "view"
    },
    {
      "type": "function",
      "name": "minLoanSize",
      "inputs": [],
      "outputs": [
        {
          "name": "",
          "type": "uint256",
          "internalType": "uint256"
        }
      ],
      "stateMutability": "view"
    },
    {
      "type": "function",
      "name": "mint",
      "inputs": [
        {
          "name": "shares",
          "type": "uint256",
          "internalType": "uint256"
        },
        {
          "name": "receiver",
          "type": "address",
          "internalType": "address"
        },
        {
          "name": "permitData",
          "type": "bytes",
          "internalType": "bytes"
        }
      ],
      "outputs": [
        {
          "name": "",
          "type": "uint256",
          "internalType": "uint256"
        }
      ],
      "stateMutability": "nonpayable"
    },
    {
      "type": "function",
      "name": "mint",
      "inputs": [
        {
          "name": "shares",
          "type": "uint256",
          "internalType": "uint256"
        },
        {
          "name": "receiver",
          "type": "address",
          "internalType": "address"
        }
      ],
      "outputs": [
        {
          "name": "",
          "type": "uint256",
          "internalType": "uint256"
        }
      ],
      "stateMutability": "nonpayable"
    },
    {
      "type": "function",
      "name": "multicall",
      "inputs": [
        {
          "name": "data",
          "type": "bytes[]",
          "internalType": "bytes[]"
        }
      ],
      "outputs": [
        {
          "name": "results",
          "type": "bytes[]",
          "internalType": "bytes[]"
        }
      ],
      "stateMutability": "nonpayable"
    },
    {
      "type": "function",
      "name": "name",
      "inputs": [],
      "outputs": [
        {
          "name": "",
          "type": "string",
          "internalType": "string"
        }
      ],
      "stateMutability": "view"
    },
    {
      "type": "function",
      "name": "nonfungiblePositionManager",
      "inputs": [],
      "outputs": [
        {
          "name": "",
          "type": "address",
          "internalType": "contract INonfungiblePositionManager"
        }
      ],
      "stateMutability": "view"
    },
    {
      "type": "function",
      "name": "onERC721Received",
      "inputs": [
        {
          "name": "",
          "type": "address",
          "internalType": "address"
        },
        {
          "name": "from",
          "type": "address",
          "internalType": "address"
        },
        {
          "name": "tokenId",
          "type": "uint256",
          "internalType": "uint256"
        },
        {
          "name": "data",
          "type": "bytes",
          "internalType": "bytes"
        }
      ],
      "outputs": [
        {
          "name": "",
          "type": "bytes4",
          "internalType": "bytes4"
        }
      ],
      "stateMutability": "nonpayable"
    },
    {
      "type": "function",
      "name": "oracle",
      "inputs": [],
      "outputs": [
        {
          "name": "",
          "type": "address",
          "internalType": "contract IV3Oracle"
        }
      ],
      "stateMutability": "view"
    },
    {
      "type": "function",
      "name": "owner",
      "inputs": [],
      "outputs": [
        {
          "name": "",
          "type": "address",
          "internalType": "address"
        }
      ],
      "stateMutability": "view"
    },
    {
      "type": "function",
      "name": "ownerOf",
      "inputs": [
        {
          "name": "tokenId",
          "type": "uint256",
          "internalType": "uint256"
        }
      ],
      "outputs": [
        {
          "name": "owner",
          "type": "address",
          "internalType": "address"
        }
      ],
      "stateMutability": "view"
    },
    {
      "type": "function",
      "name": "pendingOwner",
      "inputs": [],
      "outputs": [
        {
          "name": "",
          "type": "address",
          "internalType": "address"
        }
      ],
      "stateMutability": "view"
    },
    {
      "type": "function",
      "name": "permit2",
      "inputs": [],
      "outputs": [
        {
          "name": "",
          "type": "address",
          "internalType": "contract IPermit2"
        }
      ],
      "stateMutability": "view"
    },
    {
      "type": "function",
      "name": "previewDeposit",
      "inputs": [
        {
          "name": "assets",
          "type": "uint256",
          "internalType": "uint256"
        }
      ],
      "outputs": [
        {
          "name": "",
          "type": "uint256",
          "internalType": "uint256"
        }
      ],
      "stateMutability": "view"
    },
    {
      "type": "function",
      "name": "previewMint",
      "inputs": [
        {
          "name": "shares",
          "type": "uint256",
          "internalType": "uint256"
        }
      ],
      "outputs": [
        {
          "name": "",
          "type": "uint256",
          "internalType": "uint256"
        }
      ],
      "stateMutability": "view"
    },
    {
      "type": "function",
      "name": "previewRedeem",
      "inputs": [
        {
          "name": "shares",
          "type": "uint256",
          "internalType": "uint256"
        }
      ],
      "outputs": [
        {
          "name": "",
          "type": "uint256",
          "internalType": "uint256"
        }
      ],
      "stateMutability": "view"
    },
    {
      "type": "function",
      "name": "previewWithdraw",
      "inputs": [
        {
          "name": "assets",
          "type": "uint256",
          "internalType": "uint256"
        }
      ],
      "outputs": [
        {
          "name": "",
          "type": "uint256",
          "internalType": "uint256"
        }
      ],
      "stateMutability": "view"
    },
    {
      "type": "function",
      "name": "redeem",
      "inputs": [
        {
          "name": "shares",
          "type": "uint256",
          "internalType": "uint256"
        },
        {
          "name": "receiver",
          "type": "address",
          "internalType": "address"
        },
        {
          "name": "owner",
          "type": "address",
          "internalType": "address"
        }
      ],
      "outputs": [
        {
          "name": "",
          "type": "uint256",
          "internalType": "uint256"
        }
      ],
      "stateMutability": "nonpayable"
    },
    {
      "type": "function",
      "name": "remove",
      "inputs": [
        {
          "name": "tokenId",
          "type": "uint256",
          "internalType": "uint256"
        },
        {
          "name": "recipient",
          "type": "address",
          "internalType": "address"
        },
        {
          "name": "data",
          "type": "bytes",
          "internalType": "bytes"
        }
      ],
      "outputs": [],
      "stateMutability": "nonpayable"
    },
    {
      "type": "function",
      "name": "renounceOwnership",
      "inputs": [],
      "outputs": [],
      "stateMutability": "nonpayable"
    },
    {
      "type": "function",
      "name": "repay",
      "inputs": [
        {
          "name": "tokenId",
          "type": "uint256",
          "internalType": "uint256"
        },
        {
          "name": "amount",
          "type": "uint256",
          "internalType": "uint256"
        },
        {
          "name": "isShare",
          "type": "bool",
          "internalType": "bool"
        },
        {
          "name": "permitData",
          "type": "bytes",
          "internalType": "bytes"
        }
      ],
      "outputs": [
        {
          "name": "assets",
          "type": "uint256",
          "internalType": "uint256"
        },
        {
          "name": "shares",
          "type": "uint256",
          "internalType": "uint256"
        }
      ],
      "stateMutability": "nonpayable"
    },
    {
      "type": "function",
      "name": "repay",
      "inputs": [
        {
          "name": "tokenId",
          "type": "uint256",
          "internalType": "uint256"
        },
        {
          "name": "amount",
          "type": "uint256",
          "internalType": "uint256"
        },
        {
          "name": "isShare",
          "type": "bool",
          "internalType": "bool"
        }
      ],
      "outputs": [
        {
          "name": "assets",
          "type": "uint256",
          "internalType": "uint256"
        },
        {
          "name": "shares",
          "type": "uint256",
          "internalType": "uint256"
        }
      ],
      "stateMutability": "nonpayable"
    },
    {
      "type": "function",
      "name": "reserveFactorX32",
      "inputs": [],
      "outputs": [
        {
          "name": "",
          "type": "uint32",
          "internalType": "uint32"
        }
      ],
      "stateMutability": "view"
    },
    {
      "type": "function",
      "name": "reserveProtectionFactorX32",
      "inputs": [],
      "outputs": [
        {
          "name": "",
          "type": "uint32",
          "internalType": "uint32"
        }
      ],
      "stateMutability": "view"
    },
    {
      "type": "function",
      "name": "setEmergencyAdmin",
      "inputs": [
        {
          "name": "admin",
          "type": "address",
          "internalType": "address"
        }
      ],
      "outputs": [],
      "stateMutability": "nonpayable"
    },
    {
      "type": "function",
      "name": "setLimits",
      "inputs": [
        {
          "name": "_minLoanSize",
          "type": "uint256",
          "internalType": "uint256"
        },
        {
          "name": "_globalLendLimit",
          "type": "uint256",
          "internalType": "uint256"
        },
        {
          "name": "_globalDebtLimit",
          "type": "uint256",
          "internalType": "uint256"
        },
        {
          "name": "_dailyLendIncreaseLimitMin",
          "type": "uint256",
          "internalType": "uint256"
        },
        {
          "name": "_dailyDebtIncreaseLimitMin",
          "type": "uint256",
          "internalType": "uint256"
        }
      ],
      "outputs": [],
      "stateMutability": "nonpayable"
    },
    {
      "type": "function",
      "name": "setReserveFactor",
      "inputs": [
        {
          "name": "_reserveFactorX32",
          "type": "uint32",
          "internalType": "uint32"
        }
      ],
      "outputs": [],
      "stateMutability": "nonpayable"
    },
    {
      "type": "function",
      "name": "setReserveProtectionFactor",
      "inputs": [
        {
          "name": "_reserveProtectionFactorX32",
          "type": "uint32",
          "internalType": "uint32"
        }
      ],
      "outputs": [],
      "stateMutability": "nonpayable"
    },
    {
      "type": "function",
      "name": "setTokenConfig",
      "inputs": [
        {
          "name": "token",
          "type": "address",
          "internalType": "address"
        },
        {
          "name": "collateralFactorX32",
          "type": "uint32",
          "internalType": "uint32"
        },
        {
          "name": "collateralValueLimitFactorX32",
          "type": "uint32",
          "internalType": "uint32"
        }
      ],
      "outputs": [],
      "stateMutability": "nonpayable"
    },
    {
      "type": "function",
      "name": "setTransformer",
      "inputs": [
        {
          "name": "transformer",
          "type": "address",
          "internalType": "address"
        },
        {
          "name": "active",
          "type": "bool",
          "internalType": "bool"
        }
      ],
      "outputs": [],
      "stateMutability": "nonpayable"
    },
    {
      "type": "function",
      "name": "symbol",
      "inputs": [],
      "outputs": [
        {
          "name": "",
          "type": "string",
          "internalType": "string"
        }
      ],
      "stateMutability": "view"
    },
    {
      "type": "function",
      "name": "tokenConfigs",
      "inputs": [
        {
          "name": "",
          "type": "address",
          "internalType": "address"
        }
      ],
      "outputs": [
        {
          "name": "collateralFactorX32",
          "type": "uint32",
          "internalType": "uint32"
        },
        {
          "name": "collateralValueLimitFactorX32",
          "type": "uint32",
          "internalType": "uint32"
        },
        {
          "name": "totalDebtShares",
          "type": "uint192",
          "internalType": "uint192"
        }
      ],
      "stateMutability": "view"
    },
    {
      "type": "function",
      "name": "totalAssets",
      "inputs": [],
      "outputs": [
        {
          "name": "",
          "type": "uint256",
          "internalType": "uint256"
        }
      ],
      "stateMutability": "view"
    },
    {
      "type": "function",
      "name": "totalSupply",
      "inputs": [],
      "outputs": [
        {
          "name": "",
          "type": "uint256",
          "internalType": "uint256"
        }
      ],
      "stateMutability": "view"
    },
    {
      "type": "function",
      "name": "transfer",
      "inputs": [
        {
          "name": "to",
          "type": "address",
          "internalType": "address"
        },
        {
          "name": "amount",
          "type": "uint256",
          "internalType": "uint256"
        }
      ],
      "outputs": [
        {
          "name": "",
          "type": "bool",
          "internalType": "bool"
        }
      ],
      "stateMutability": "nonpayable"
    },
    {
      "type": "function",
      "name": "transferFrom",
      "inputs": [
        {
          "name": "from",
          "type": "address",
          "internalType": "address"
        },
        {
          "name": "to",
          "type": "address",
          "internalType": "address"
        },
        {
          "name": "amount",
          "type": "uint256",
          "internalType": "uint256"
        }
      ],
      "outputs": [
        {
          "name": "",
          "type": "bool",
          "internalType": "bool"
        }
      ],
      "stateMutability": "nonpayable"
    },
    {
      "type": "function",
      "name": "transferOwnership",
      "inputs": [
        {
          "name": "newOwner",
          "type": "address",
          "internalType": "address"
        }
      ],
      "outputs": [],
      "stateMutability": "nonpayable"
    },
    {
      "type": "function",
      "name": "transform",
      "inputs": [
        {
          "name": "tokenId",
          "type": "uint256",
          "internalType": "uint256"
        },
        {
          "name": "transformer",
          "type": "address",
          "internalType": "address"
        },
        {
          "name": "data",
          "type": "bytes",
          "internalType": "bytes"
        }
      ],
      "outputs": [
        {
          "name": "newTokenId",
          "type": "uint256",
          "internalType": "uint256"
        }
      ],
      "stateMutability": "nonpayable"
    },
    {
      "type": "function",
      "name": "transformApprovals",
      "inputs": [
        {
          "name": "",
          "type": "address",
          "internalType": "address"
        },
        {
          "name": "",
          "type": "uint256",
          "internalType": "uint256"
        },
        {
          "name": "",
          "type": "address",
          "internalType": "address"
        }
      ],
      "outputs": [
        {
          "name": "",
          "type": "bool",
          "internalType": "bool"
        }
      ],
      "stateMutability": "view"
    },
    {
      "type": "function",
      "name": "transformedTokenId",
      "inputs": [],
      "outputs": [
        {
          "name": "",
          "type": "uint256",
          "internalType": "uint256"
        }
      ],
      "stateMutability": "view"
    },
    {
      "type": "function",
      "name": "transformerAllowList",
      "inputs": [
        {
          "name": "",
          "type": "address",
          "internalType": "address"
        }
      ],
      "outputs": [
        {
          "name": "",
          "type": "bool",
          "internalType": "bool"
        }
      ],
      "stateMutability": "view"
    },
    {
      "type": "function",
      "name": "vaultInfo",
      "inputs": [],
      "outputs": [
        {
          "name": "debt",
          "type": "uint256",
          "internalType": "uint256"
        },
        {
          "name": "lent",
          "type": "uint256",
          "internalType": "uint256"
        },
        {
          "name": "balance",
          "type": "uint256",
          "internalType": "uint256"
        },
        {
          "name": "reserves",
          "type": "uint256",
          "internalType": "uint256"
        },
        {
          "name": "debtExchangeRateX96",
          "type": "uint256",
          "internalType": "uint256"
        },
        {
          "name": "lendExchangeRateX96",
          "type": "uint256",
          "internalType": "uint256"
        }
      ],
      "stateMutability": "view"
    },
    {
      "type": "function",
      "name": "withdraw",
      "inputs": [
        {
          "name": "assets",
          "type": "uint256",
          "internalType": "uint256"
        },
        {
          "name": "receiver",
          "type": "address",
          "internalType": "address"
        },
        {
          "name": "owner",
          "type": "address",
          "internalType": "address"
        }
      ],
      "outputs": [
        {
          "name": "",
          "type": "uint256",
          "internalType": "uint256"
        }
      ],
      "stateMutability": "nonpayable"
    },
    {
      "type": "function",
      "name": "withdrawReserves",
      "inputs": [
        {
          "name": "amount",
          "type": "uint256",
          "internalType": "uint256"
        },
        {
          "name": "receiver",
          "type": "address",
          "internalType": "address"
        }
      ],
      "outputs": [],
      "stateMutability": "nonpayable"
    },
    {
      "type": "event",
      "name": "Add",
      "inputs": [
        {
          "name": "tokenId",
          "type": "uint256",
          "indexed": true,
          "internalType": "uint256"
        },
        {
          "name": "owner",
          "type": "address",
          "indexed": false,
          "internalType": "address"
        },
        {
          "name": "oldTokenId",
          "type": "uint256",
          "indexed": false,
          "internalType": "uint256"
        }
      ],
      "anonymous": false
    },
    {
      "type": "event",
      "name": "Approval",
      "inputs": [
        {
          "name": "owner",
          "type": "address",
          "indexed": true,
          "internalType": "address"
        },
        {
          "name": "spender",
          "type": "address",
          "indexed": true,
          "internalType": "address"
        },
        {
          "name": "value",
          "type": "uint256",
          "indexed": false,
          "internalType": "uint256"
        }
      ],
      "anonymous": false
    },
    {
      "type": "event",
      "name": "ApprovedTransform",
      "inputs": [
        {
          "name": "tokenId",
          "type": "uint256",
          "indexed": true,
          "internalType": "uint256"
        },
        {
          "name": "owner",
          "type": "address",
          "indexed": false,
          "internalType": "address"
        },
        {
          "name": "target",
          "type": "address",
          "indexed": false,
          "internalType": "address"
        },
        {
          "name": "isActive",
          "type": "bool",
          "indexed": false,
          "internalType": "bool"
        }
      ],
      "anonymous": false
    },
    {
      "type": "event",
      "name": "Borrow",
      "inputs": [
        {
          "name": "tokenId",
          "type": "uint256",
          "indexed": true,
          "internalType": "uint256"
        },
        {
          "name": "owner",
          "type": "address",
          "indexed": false,
          "internalType": "address"
        },
        {
          "name": "assets",
          "type": "uint256",
          "indexed": false,
          "internalType": "uint256"
        },
        {
          "name": "shares",
          "type": "uint256",
          "indexed": false,
          "internalType": "uint256"
        }
      ],
      "anonymous": false
    },
    {
      "type": "event",
      "name": "Deposit",
      "inputs": [
        {
          "name": "sender",
          "type": "address",
          "indexed": true,
          "internalType": "address"
        },
        {
          "name": "owner",
          "type": "address",
          "indexed": true,
          "internalType": "address"
        },
        {
          "name": "assets",
          "type": "uint256",
          "indexed": false,
          "internalType": "uint256"
        },
        {
          "name": "shares",
          "type": "uint256",
          "indexed": false,
          "internalType": "uint256"
        }
      ],
      "anonymous": false
    },
    {
      "type": "event",
      "name": "ExchangeRateUpdate",
      "inputs": [
        {
          "name": "debtExchangeRateX96",
          "type": "uint256",
          "indexed": false,
          "internalType": "uint256"
        },
        {
          "name": "lendExchangeRateX96",
          "type": "uint256",
          "indexed": false,
          "internalType": "uint256"
        }
      ],
      "anonymous": false
    },
    {
      "type": "event",
      "name": "Liquidate",
      "inputs": [
        {
          "name": "tokenId",
          "type": "uint256",
          "indexed": true,
          "internalType": "uint256"
        },
        {
          "name": "liquidator",
          "type": "address",
          "indexed": false,
          "internalType": "address"
        },
        {
          "name": "owner",
          "type": "address",
          "indexed": false,
          "internalType": "address"
        },
        {
          "name": "value",
          "type": "uint256",
          "indexed": false,
          "internalType": "uint256"
        },
        {
          "name": "cost",
          "type": "uint256",
          "indexed": false,
          "internalType": "uint256"
        },
        {
          "name": "amount0",
          "type": "uint256",
          "indexed": false,
          "internalType": "uint256"
        },
        {
          "name": "amount1",
          "type": "uint256",
          "indexed": false,
          "internalType": "uint256"
        },
        {
          "name": "reserve",
          "type": "uint256",
          "indexed": false,
          "internalType": "uint256"
        },
        {
          "name": "missing",
          "type": "uint256",
          "indexed": false,
          "internalType": "uint256"
        }
      ],
      "anonymous": false
    },
    {
      "type": "event",
      "name": "OwnershipTransferStarted",
      "inputs": [
        {
          "name": "previousOwner",
          "type": "address",
          "indexed": true,
          "internalType": "address"
        },
        {
          "name": "newOwner",
          "type": "address",
          "indexed": true,
          "internalType": "address"
        }
      ],
      "anonymous": false
    },
    {
      "type": "event",
      "name": "OwnershipTransferred",
      "inputs": [
        {
          "name": "previousOwner",
          "type": "address",
          "indexed": true,
          "internalType": "address"
        },
        {
          "name": "newOwner",
          "type": "address",
          "indexed": true,
          "internalType": "address"
        }
      ],
      "anonymous": false
    },
    {
      "type": "event",
      "name": "Remove",
      "inputs": [
        {
          "name": "tokenId",
          "type": "uint256",
          "indexed": true,
          "internalType": "uint256"
        },
        {
          "name": "owner",
          "type": "address",
          "indexed": false,
          "internalType": "address"
        },
        {
          "name": "recipient",
          "type": "address",
          "indexed": false,
          "internalType": "address"
        }
      ],
      "anonymous": false
    },
    {
      "type": "event",
      "name": "Repay",
      "inputs": [
        {
          "name": "tokenId",
          "type": "uint256",
          "indexed": true,
          "internalType": "uint256"
        },
        {
          "name": "repayer",
          "type": "address",
          "indexed": false,
          "internalType": "address"
        },
        {
          "name": "owner",
          "type": "address",
          "indexed": false,
          "internalType": "address"
        },
        {
          "name": "assets",
          "type": "uint256",
          "indexed": false,
          "internalType": "uint256"
        },
        {
          "name": "shares",
          "type": "uint256",
          "indexed": false,
          "internalType": "uint256"
        }
      ],
      "anonymous": false
    },
    {
      "type": "event",
      "name": "SetEmergencyAdmin",
      "inputs": [
        {
          "name": "emergencyAdmin",
          "type": "address",
          "indexed": false,
          "internalType": "address"
        }
      ],
      "anonymous": false
    },
    {
      "type": "event",
      "name": "SetLimits",
      "inputs": [
        {
          "name": "minLoanSize",
          "type": "uint256",
          "indexed": false,
          "internalType": "uint256"
        },
        {
          "name": "globalLendLimit",
          "type": "uint256",
          "indexed": false,
          "internalType": "uint256"
        },
        {
          "name": "globalDebtLimit",
          "type": "uint256",
          "indexed": false,
          "internalType": "uint256"
        },
        {
          "name": "dailyLendIncreaseLimitMin",
          "type": "uint256",
          "indexed": false,
          "internalType": "uint256"
        },
        {
          "name": "dailyDebtIncreaseLimitMin",
          "type": "uint256",
          "indexed": false,
          "internalType": "uint256"
        }
      ],
      "anonymous": false
    },
    {
      "type": "event",
      "name": "SetReserveFactor",
      "inputs": [
        {
          "name": "reserveFactorX32",
          "type": "uint32",
          "indexed": false,
          "internalType": "uint32"
        }
      ],
      "anonymous": false
    },
    {
      "type": "event",
      "name": "SetReserveProtectionFactor",
      "inputs": [
        {
          "name": "reserveProtectionFactorX32",
          "type": "uint32",
          "indexed": false,
          "internalType": "uint32"
        }
      ],
      "anonymous": false
    },
    {
      "type": "event",
      "name": "SetTokenConfig",
      "inputs": [
        {
          "name": "token",
          "type": "address",
          "indexed": false,
          "internalType": "address"
        },
        {
          "name": "collateralFactorX32",
          "type": "uint32",
          "indexed": false,
          "internalType": "uint32"
        },
        {
          "name": "collateralValueLimitFactorX32",
          "type": "uint32",
          "indexed": false,
          "internalType": "uint32"
        }
      ],
      "anonymous": false
    },
    {
      "type": "event",
      "name": "SetTransformer",
      "inputs": [
        {
          "name": "transformer",
          "type": "address",
          "indexed": false,
          "internalType": "address"
        },
        {
          "name": "active",
          "type": "bool",
          "indexed": false,
          "internalType": "bool"
        }
      ],
      "anonymous": false
    },
    {
      "type": "event",
      "name": "Transfer",
      "inputs": [
        {
          "name": "from",
          "type": "address",
          "indexed": true,
          "internalType": "address"
        },
        {
          "name": "to",
          "type": "address",
          "indexed": true,
          "internalType": "address"
        },
        {
          "name": "value",
          "type": "uint256",
          "indexed": false,
          "internalType": "uint256"
        }
      ],
      "anonymous": false
    },
    {
      "type": "event",
      "name": "Withdraw",
      "inputs": [
        {
          "name": "sender",
          "type": "address",
          "indexed": true,
          "internalType": "address"
        },
        {
          "name": "receiver",
          "type": "address",
          "indexed": true,
          "internalType": "address"
        },
        {
          "name": "owner",
          "type": "address",
          "indexed": true,
          "internalType": "address"
        },
        {
          "name": "assets",
          "type": "uint256",
          "indexed": false,
          "internalType": "uint256"
        },
        {
          "name": "shares",
          "type": "uint256",
          "indexed": false,
          "internalType": "uint256"
        }
      ],
      "anonymous": false
    },
    {
      "type": "event",
      "name": "WithdrawCollateral",
      "inputs": [
        {
          "name": "tokenId",
          "type": "uint256",
          "indexed": true,
          "internalType": "uint256"
        },
        {
          "name": "owner",
          "type": "address",
          "indexed": false,
          "internalType": "address"
        },
        {
          "name": "recipient",
          "type": "address",
          "indexed": false,
          "internalType": "address"
        },
        {
          "name": "liquidity",
          "type": "uint128",
          "indexed": false,
          "internalType": "uint128"
        },
        {
          "name": "amount0",
          "type": "uint256",
          "indexed": false,
          "internalType": "uint256"
        },
        {
          "name": "amount1",
          "type": "uint256",
          "indexed": false,
          "internalType": "uint256"
        }
      ],
      "anonymous": false
    },
    {
      "type": "event",
      "name": "WithdrawReserves",
      "inputs": [
        {
          "name": "amount",
          "type": "uint256",
          "indexed": false,
          "internalType": "uint256"
        },
        {
          "name": "receiver",
          "type": "address",
          "indexed": false,
          "internalType": "address"
        }
      ],
      "anonymous": false
    },
    {
      "type": "error",
      "name": "AmountError",
      "inputs": []
    },
    {
      "type": "error",
      "name": "ChainlinkPriceError",
      "inputs": []
    },
    {
      "type": "error",
      "name": "CollateralFactorExceedsMax",
      "inputs": []
    },
    {
      "type": "error",
      "name": "CollateralFail",
      "inputs": []
    },
    {
      "type": "error",
      "name": "CollateralValueLimit",
      "inputs": []
    },
    {
      "type": "error",
      "name": "CollectError",
      "inputs": []
    },
    {
      "type": "error",
      "name": "DailyDebtIncreaseLimit",
      "inputs": []
    },
    {
      "type": "error",
      "name": "DailyLendIncreaseLimit",
      "inputs": []
    },
    {
      "type": "error",
      "name": "DebtChanged",
      "inputs": []
    },
    {
      "type": "error",
      "name": "EtherSendFailed",
      "inputs": []
    },
    {
      "type": "error",
      "name": "ExceedsMaxReward",
      "inputs": []
    },
    {
      "type": "error",
      "name": "GlobalDebtLimit",
      "inputs": []
    },
    {
      "type": "error",
      "name": "GlobalLendLimit",
      "inputs": []
    },
    {
      "type": "error",
      "name": "InsufficientLiquidity",
      "inputs": []
    },
    {
      "type": "error",
      "name": "InterestNotUpdated",
      "inputs": []
    },
    {
      "type": "error",
      "name": "InvalidConfig",
      "inputs": []
    },
    {
      "type": "error",
      "name": "InvalidPool",
      "inputs": []
    },
    {
      "type": "error",
      "name": "InvalidToken",
      "inputs": []
    },
    {
      "type": "error",
      "name": "MinLoanSize",
      "inputs": []
    },
    {
      "type": "error",
      "name": "MissingSwapData",
      "inputs": []
    },
    {
      "type": "error",
      "name": "NeedsRepay",
      "inputs": []
    },
    {
      "type": "error",
      "name": "NoEtherToken",
      "inputs": []
    },
    {
      "type": "error",
      "name": "NoLiquidity",
      "inputs": []
    },
    {
      "type": "error",
      "name": "NoSharesRepayed",
      "inputs": []
    },
    {
      "type": "error",
      "name": "NotConfigured",
      "inputs": []
    },
    {
      "type": "error",
      "name": "NotEnoughReward",
      "inputs": []
    },
    {
      "type": "error",
      "name": "NotLiquidatable",
      "inputs": []
    },
    {
      "type": "error",
      "name": "NotReady",
      "inputs": []
    },
    {
      "type": "error",
      "name": "NotSupportedFeeTier",
      "inputs": []
    },
    {
      "type": "error",
      "name": "NotSupportedWhatToDo",
      "inputs": []
    },
    {
      "type": "error",
      "name": "NotWETH",
      "inputs": []
    },
    {
      "type": "error",
      "name": "PriceDifferenceExceeded",
      "inputs": []
    },
    {
      "type": "error",
      "name": "Reentrancy",
      "inputs": []
    },
    {
      "type": "error",
      "name": "SameRange",
      "inputs": []
    },
    {
      "type": "error",
      "name": "SameToken",
      "inputs": []
    },
    {
      "type": "error",
      "name": "SelfSend",
      "inputs": []
    },
    {
      "type": "error",
      "name": "SequencerDown",
      "inputs": []
    },
    {
      "type": "error",
      "name": "SequencerGracePeriodNotOver",
      "inputs": []
    },
    {
      "type": "error",
      "name": "SequencerUptimeFeedInvalid",
      "inputs": []
    },
    {
      "type": "error",
      "name": "SlippageError",
      "inputs": []
    },
    {
      "type": "error",
      "name": "SwapAmountTooLarge",
      "inputs": []
    },
    {
      "type": "error",
      "name": "SwapFailed",
      "inputs": []
    },
    {
      "type": "error",
      "name": "TWAPCheckFailed",
      "inputs": []
    },
    {
      "type": "error",
      "name": "TooMuchEtherSent",
      "inputs": []
    },
    {
      "type": "error",
      "name": "TransferError",
      "inputs": []
    },
    {
      "type": "error",
      "name": "TransformFailed",
      "inputs": []
    },
    {
      "type": "error",
      "name": "TransformNotAllowed",
      "inputs": []
    },
    {
      "type": "error",
      "name": "Unauthorized",
      "inputs": []
    },
    {
      "type": "error",
      "name": "WrongContract",
      "inputs": []
    }
  ],
  "bytecode": {
    "object": "0x6101806040818152346200043d57620066ee80380380916200002282866200068b565b843982019060e0838303126200043d5782516001600160401b0393908481116200043d578362000054918301620006af565b60209384830151908682116200043d5762000071918401620006af565b936200007f84840162000725565b60608401516001600160a01b036101608190529196918116908181036200043d5760808601519461016051861686036200043d5760a08701519661016051881688036200043d5760c0015199610160518b168b036200043d5781518181116200058b576003908154906001948583811c9316801562000680575b8a8410146200066a578190601f9384811162000614575b508a90848311600114620005ad57600092620005a1575b505060001982851b1c191690851b1782555b86519283116200058b5760049687548581811c9116801562000580575b8a8210146200056b5782811162000520575b5088918411600114620004b557938394918492600095620004a9575b50501b92600019911b1c19161783555b8360018060a01b03198060065416600655600554903390821617600555848951809b8193339061016051167f8be0079c531659141344cd1fd0a4f28419497f9722a3daafe3b4186f6b6457e0600080a36c010000000000000000000000006009819055600a556019805463ffffffff60601b19166251eb8560631b17905561012081905263313ce56760e01b825261016051165afa9788156200049e5760009862000455575b50610140978852608052855163c45a015560e01b815291839183919082905afa9182156200044a5760009262000407575b5050610160511660a05260c05260e0526101009283525190615fb392836200073b84396080518381816106010152818161088201528181610a9601528181610fc5015281816116b701528181611899015281816119f501528181611aad01528181611c680152818161269801528181612f2a0152818161324801528181613466015281816139f8015281816148d401528181614be801526158d4015260a051836109a5015260c05183818161045a0152614554015260e05183818161183c01528181611d330152818161254901528181612fdd015281816139a6015261587f015251828181611f7b01528181611fd0015281816137be015281816152a90152818161549601526156eb015261012051828181610cfb01528181610f1101528181611320015281816116e10152818161180b01528181611f350152818161204701528181612e3801528181612fa60152818161391e0152818161396d01528181613fc5015281816152810152818161537c0152818161546e015281816155eb015281816156c3015281816157fb015261584c015251816133430152f35b90809250813d831162000442575b6200042181836200068b565b810103126200043d57620004359062000725565b38806200026b565b600080fd5b503d62000415565b85513d6000823e3d90fd5b8481819a939a3d831162000496575b6200047081836200068b565b810103126200049257519060ff821682036200048f575096836200023a565b80fd5b5080fd5b503d62000464565b87513d6000823e3d90fd5b01519350388062000184565b9190601f1984169288600052848a6000209460005b8c89838310620005085750505010620004ed575b50505050811b01835562000194565b01519060f884600019921b161c1916905538808080620004de565b868601518955909701969485019488935001620004ca565b88600052896000208380870160051c8201928c881062000561575b0160051c019086905b8281106200055457505062000168565b6000815501869062000544565b925081926200053b565b602289634e487b7160e01b6000525260246000fd5b90607f169062000156565b634e487b7160e01b600052604160045260246000fd5b01519050388062000127565b60008681528c8120899550929190601f198516908e5b828210620005fc5750508411620005e3575b505050811b01825562000139565b015160001983871b60f8161c19169055388080620005d5565b8385015186558b979095019493840193018e620005c3565b909150846000528a6000208480850160051c8201928d861062000660575b918991869594930160051c01915b8281106200065057505062000110565b6000815585945089910162000640565b9250819262000632565b634e487b7160e01b600052602260045260246000fd5b92607f1692620000f9565b601f909101601f19168101906001600160401b038211908210176200058b57604052565b919080601f840112156200043d5782516001600160401b0381116200058b5760209060405192620006ea83601f19601f85011601856200068b565b8184528282870101116200043d5760005b8181106200071157508260009394955001015290565b8581018301518482018401528201620006fb565b51906001600160a01b03821682036200043d5756fe6080604052600436101561001257600080fd5b6000803560e01c806301de9ba814613c6257806301e1d11414613c4757806306fdde0314613ba157806307a2d13a14612cc6578063095ea7b314613b7a5780630a28a47714613b515780630ecbcdab146137ed57806312261ee7146137a8578063150b7a021461341357806318160ddd146133f55780631b69dc5f146133a057806323b872dd14613367578063313ce5671461332957806335da3394146132bb5780633767ecaf14612e6757806338d52e0f14612e225780633950935114612dd25780633d4b6b6414612d4b578063402d267d14612d265780634483f8a114612d08578063464744cc14612ce95780634ac1701514612ccb5780634cdad50614612cc65780634f0564a814612c8d578063501ec73814612c2b57806351a40da314612c0c5780635b81aaf214612bee5780635ced838514612baf5780635d76e19814612b59578063625138ef14612af85780636352211e14612ac55780636e553f6514612a8d5780636fcf2e0914612a665780636fd5229814612a2157806370905dce146129f857806370a08231146129c0578063715018a614612959578063729dbda11461293b57806373c025191461291e57806378cc76441461263957806379ba5097146125785780637dc0d1d01461253357806381b8a2da146125145780638349d6be14612486578063841c8983146124675780638518da6114612449578063879f41301461242257806387c5ac6f1461240457806387e92dbf146123e55780638da5cb5b146123bc578063936b8dd01461230157806394bf804d146122c057806395d89b41146121cb5780639642370c146117155780639995dfd8146115f65780639bcf51fe146115ac578063a2f182d414611460578063a457c2d7146113bb578063a628a9c014610700578063a9059cbb14611389578063a95558aa14611362578063ab3799491461124c578063ac9650d814611062578063ae41abab14611044578063b0ea65e61461101d578063b3d7f6b914610ff4578063b44a272214610faf578063b460af9414610e4a578063ba08765214610c33578063be757d0614610c15578063be7ae9aa146109d4578063c45a01551461098f578063c63d75b61461096a578063c6e6f5921461068a578063cabd329f1461084a578063cd2fc4f71461082c578063ce96cb7714610808578063cf09b4ae146107ea578063d4759f06146107a7578063d905777e1461077b578063dd62ed3e1461072c578063dd6dc33214610705578063ddd8aafe14610700578063e1ec3c68146106d6578063e30c3978146106ad578063ebdab50c1461068f578063ef8b30f71461068a578063f01fe692146105ca578063f2fde38b1461055c578063f30a0a7914610489578063f3fdb15a146104445763faa9bce91461041157600080fd5b3461044157602061043761043161042736613e2d565b9391933691614196565b916153f2565b9050604051908152f35b80fd5b50346104415780600319360112610441576040517f00000000000000000000000000000000000000000000000000000000000000006001600160a01b03168152602090f35b5034610441576060366003190112610441576104a3613d63565b6024359063ffffffff80831680930361055757604435908116808203610557576104cb614415565b63e66666668411610545577fb771fa4750768d51684d94f7efedc2c018719964a64d88b60bd69971fff0346f9360609360018060a01b031692838752600760205260408720908267ffffffff0000000083549260201b16916001600160401b0319161717905560405192835260208301526040820152a180f35b604051631489e7d760e21b8152600490fd5b600080fd5b503461044157602036600319011261044157610576613d63565b61057e614415565b600680546001600160a01b0319166001600160a01b039283169081179091556005549091167f38d16b8cac22d99fc7c124b9cd0de2d3fa1faef420bfe791d8c362d765e227008380a380f35b503461044157604036600319011261044157806105e5613d79565b6040516001600160a01b039182166020808301919091528152907f00000000000000000000000000000000000000000000000000000000000000001661062a82613f6e565b803b156106865761065a8392918392604051948580948193635c46a7ef60e11b8352600435303360048601614366565b03925af1801561067b5761066b5750f35b61067490613f40565b6104415780f35b6040513d84823e3d90fd5b5050fd5b613ec7565b50346104415780600319360112610441576020600a54604051908152f35b50346104415780600319360112610441576006546040516001600160a01b039091168152602090f35b50346104415760203660031901126104415760406020916004358152601283522054604051908152f35b613e73565b5034610441578060031936011261044157602063ffffffff60195460601c16604051908152f35b503461044157604036600319011261044157610746613d63565b6040610750613d79565b9260018060a01b03809316815260016020522091166000526020526020604060002054604051908152f35b503461044157602036600319011261044157602061079f61079a613d63565b6143d6565b604051908152f35b50346104415760203660031901126104415761079f60209160406107c9613d63565b916107d26144e5565b6001600160a01b039094168252508085522054615cb6565b50346104415780600319360112610441576020600d54604051908152f35b503461044157602036600319011261044157602061079f610827613d63565b614397565b50346104415780600319360112610441576020600e54604051908152f35b50346104415760c03660031901126104415780600435610868613d79565b906064359160ff831680930361093e576001600160a01b037f0000000000000000000000000000000000000000000000000000000000000000811693843b156109665760405190637ac2ff7b60e01b825230600483015284602483015260443560448301526064820152608435608482015260a43560a4820152858160c48183895af190811561095b578691610943575b5050604051911660208201526020815261091281613f6e565b823b1561093e5761065a92849283604051809681958294635c46a7ef60e11b8452303360048601614366565b505050fd5b61094c90613f40565b6109575784386108f9565b8480fd5b6040513d88823e3d90fd5b8580fd5b503461044157602036600319011261044157610984613d63565b50602061079f614313565b50346104415780600319360112610441576040517f00000000000000000000000000000000000000000000000000000000000000006001600160a01b03168152602090f35b5034610441576109e336613e2d565b8385526020906015825260018060a01b03938460408820541693338503610c0457868852601284526040882054610bf25784885260138452604088205460001990818101908111610bde57888a526014865289604081205491808303610b7e575b5087915052601385526040892080548015610b6a5790828b96959493920191610a6d83836142ba565b909182549160031b1b1916905555878452601585526040842060018060a01b03198154169055867f000000000000000000000000000000000000000000000000000000000000000016803b156109575788978560a481958760405198899788968794635c46a7ef60e11b8652306004870152169e8f6024860152604485015260806064850152816084850152848401378181018301849052601f01601f191681010301925af1801561067b57610b52575b5050907faa54a5e34aaca4384ef48e383f5fee5641ccb3ecd513304ec69e7bd4dd5dbe9c926040928351928352820152a280f35b610b5e90939293613f40565b61095757908438610b1e565b634e487b7160e01b8b52603160045260248bfd5b81610bb284610b9b610bcb948d6040975260138d528685206142ba565b90549060031b1c94838d87955260138d52206142ba565b90919082549060031b91821b91600019901b1916179055565b8a526014865260408a2055388981610a44565b634e487b7160e01b8a52601160045260248afd5b6040516328922c1360e11b8152600490fd5b6040516282b42960e81b8152600490fd5b50346104415780600319360112610441576020600c54604051908152f35b503461044157610c4236613e92565b610c4a61446d565b9290610c5584615b3b565b8491610c618587615cb6565b9460018060a01b0392838616958660005260209860008a52604060002054809111610e2d575b5091610c9f91889387893303610e1b575b5050615022565b5010610e09578315610dba578360005260008652604060002054838110610d6a5783908560005260008852036040600020558260025403600255600084600080516020615f5e83398151915288604051878152a3610d208582847f000000000000000000000000000000000000000000000000000000000000000016614abe565b610d2c85600f54614030565b600f55604051928584528684015216907ffbde797d201c681b91056529119e0b02407c7bb96a4a2c75c01fc9667232c8db60403392a4604051908152f35b60405162461bcd60e51b815260048101889052602260248201527f45524332303a206275726e20616d6f756e7420657863656564732062616c616e604482015261636560f01b6064820152608490fd5b60405162461bcd60e51b815260048101879052602160248201527f45524332303a206275726e2066726f6d20746865207a65726f206164647265736044820152607360f81b6064820152608490fd5b60405163bb55fd2760e01b8152600490fd5b610e26913390614dc5565b8a87610c98565b955091610c9f919750610e408187615cb6565b9791929092610c87565b503461044157610e5936613e92565b91610e6261446d565b610e6e81939293615b3b565b610e788183615cfb565b9360018060a01b0391828716948560005260209760008952604060002054808911610f92575b5091610eb591869389893303610f80575050615022565b5010610e09578315610dba578360005260008652604060002054858110610d6a5785908560005260008852036040600020558460025403600255600084600080516020615f5e83398151915288604051898152a3610f368382847f000000000000000000000000000000000000000000000000000000000000000016614abe565b610f4283600f54614030565b600f55604051928352848684015216907ffbde797d201c681b91056529119e0b02407c7bb96a4a2c75c01fc9667232c8db60403392a4604051908152f35b610f8b913390614dc5565b8a89610c98565b975091610eb5919550610fa58189615cb6565b9591929092610e9e565b50346104415780600319360112610441576040517f00000000000000000000000000000000000000000000000000000000000000006001600160a01b03168152602090f35b503461044157602036600319011261044157602061079f6110136144e5565b9050600435615d29565b5034610441578060031936011261044157602063ffffffff60195460a01c16604051908152f35b50346104415780600319360112610441576020601654604051908152f35b503461044157602080600319360112611248576004356001600160401b0380821161124457366023830112156112445781600401359081116112445760059160248181013684861b840183011161124057604096959651916110c383613eef565b868352878301936110d3866142e8565b966110e16040519889613f89565b8688526110ed876142e8565b601f1901895b818110611231575050885b878110611164578a8a8a60405191838301848452825180915260408401948060408360051b870101940192955b8287106111385785850386f35b909192938280611154600193603f198a82030186528851613d16565b960192019601959291909261112b565b806112128c8c809e9d8b6111ad6111b9858e61118a8f8f8f8f9e60019f1b010190614211565b91909560405195838794868601998a37840191858301938a855251938491613cf3565b01038084520182613f89565b7f416464726573733a206c6f772d6c6576656c2064656c65676174652063616c6c604051956111e787613f53565b60278752860152660819985a5b195960ca1b60408601525190305af461120b6141cd565b9030615ea0565b61121c828c6142ff565b52611227818b6142ff565b50019998996110fe565b60608a82018d01528b016110f3565b8680fd5b8380fd5b5080fd5b503461044157604036600319011261044157600435611269613d79565b611271614415565b6112a961127c61446d565b6112a061128e82600295949554615d29565b63ffffffff60195460601c1690613e0b565b60201c92615022565b909180821115611359576112bc9161403d565b905b8181111561135257505b8211610e0957817f368f2fabdfe1d69c0eec91d6a2b8b387d2d8fb1ce8fd40159dd4608451a608f192611319575b604080519182526001600160a01b03909216602082015290819081015b0390a180f35b61134d81837f00000000000000000000000000000000000000000000000000000000000000006001600160a01b0316614abe565b6112f6565b90506112c8565b505083906112be565b5034610441578060031936011261044157602063ffffffff60195460801c16604051908152f35b5034610441576040366003190112610441576113b06113a6613d63565b6024359033614e5d565b602060405160018152f35b5034610441576040366003190112610441576113d5613d63565b60406024359233815260016020522060018060a01b0382166000526020526040600020549180831061140d576113b092039033614622565b60405162461bcd60e51b815260206004820152602560248201527f45524332303a2064656372656173656420616c6c6f77616e63652062656c6f77604482015264207a65726f60d81b6064820152608490fd5b50346104415760a036600319011261044157600435602435604435916064359260843560018060a01b0380601a5416331415908161159d575b50610c04577f185526bcdccdbc9ed8384466622ff4e774b1d20f636ff608d4a7b53c1407193d946113139284600d5585600c5580600b5581600e55826010556114e061446d565b905062015180420490611522611500600254926115056115008286615d29565b613ddc565b600e549060201c8082111561159657505b600f5560195493615d29565b6010549060201c8082111561158f57505b60115563ffffffff60a01b8260a01b169163ffffffff60801b9060801b16906001600160401b0360801b19161717601955604051958695869192608093969594919660a084019784526020840152604083015260608201520152565b9050611533565b9050611516565b90506005541633141538611499565b5034610441576040366003190112610441576020906115e8906001600160a01b036115d5613d63565b16815260138352604060243591206142ba565b90546040519160031b1c8152f35b503461044157604036600319011261044157611610613d63565b6024358015159182820361055757611626614415565b6001600160a01b0390811690811590811561170b575b81156116df575b81156116b3575b506116a1577f5f19fbf9b5e6a563049dbbb977cfe0883c49796e984917f433e1d6464fca1d4c9261169360409383875260176020528487209060ff801983541691151516179055565b82519182526020820152a180f35b6040516306b7c75960e31b8152600490fd5b90507f00000000000000000000000000000000000000000000000000000000000000001681143861164a565b7f0000000000000000000000000000000000000000000000000000000000000000811683149150611643565b308314915061163c565b503461044157600319602036820112611248576001600160401b03600435116112485760c09060043536030112610441576016546121b95760405161016081018181106001600160401b038211176121a3576040528181528160208201528160408201528160608201528160808201528160a08201528160c08201528160e08201528161010082015281610120820152816101408201526117c56117b761446d565b908160208501528352614724565b600435600401358252601260205260408220546117e3825182615d29565b6040838101829052516301cc23a760e31b815260048035810135908201526001600160a01b037f0000000000000000000000000000000000000000000000000000000000000000166024820152608081806044810103817f00000000000000000000000000000000000000000000000000000000000000006001600160a01b03165afa91821561215b576000918293612167575b5060405163133f757160e31b81526004803581013590820152610180816024817f00000000000000000000000000000000000000000000000000000000000000006001600160a01b03165afa801561215b576119199160009060009261212c575b506001600160a01b0390811660009081526007602052604080822054939092168152205463ffffffff919082169082168181111561212557505b1683615ba9565b9081101592610140860152610120850152610100840152806060840152612113576119546040830151610100840151610120850151916159c1565b91908260c086015260a0850152608084015280612079575b5060a08201519081611e51575b611986915060085461403d565b60085561199a601154604083015190614030565b6011556080810151610100820151610140830151919291600435606401356001600160a01b038116900361055757838203611d1257505060405163133f757160e31b81526004803581013590820152909150610180816024817f00000000000000000000000000000000000000000000000000000000000000006001600160a01b03165afa908115611c00578391611cd5575b506001600160801b03919082905b6001600160801b038116611c0b575b50611aa892604091825191611a5e83613f25565b60048035808201358552606401356001600160a01b031660208501526001600160801b039182168585015291166060830152825163fc6f786560e01b8152948592839283016140f3565b0381867f00000000000000000000000000000000000000000000000000000000000000006001600160a01b03165af1908115611c005783928492611bcc575b506024600435013583108015611bbd575b611bab57604093611b16825160208401519060043560040135614b89565b60043560040135815260156020528460018060a01b0391205416906101008101519060a081015160e060c08301519201519287519433865260208601528785015260608401528460808401528360a084015260c083015260e08201527fed06e9846d4eeeab7ba0ef79c085287948a840eb50234fd66642450a000447ca6101006004356004013592a282519182526020820152f35b604051630d4205a160e11b8152600490fd5b50604460043501358210611af8565b909250611bf1915060403d604011611bf9575b611be98183613f89565b81019061408c565b909138611ae7565b503d611bdf565b6040513d85823e3d90fd5b60408051611c639592611c1d82613f0a565b60043560040135825260018060801b03166020820152868282015286606082015260a460043501356080820152815180968192630624e65f60e11b8352600483016140a2565b0381887f00000000000000000000000000000000000000000000000000000000000000006001600160a01b03165af1918215611cca57611aa894604093611cae575b50915092611a4a565b611cc490843d8611611bf957611be98183613f89565b50611ca5565b6040513d87823e3d90fd5b611cf991506101803d61018011611d0b575b611cf18183613f89565b8101906147b4565b50505050965050505050505038611a2d565b503d611ce7565b604051636f2ed3e360e11b81526004803581013590820152936060856024817f00000000000000000000000000000000000000000000000000000000000000006001600160a01b03165afa801561095b57869087968891611df9575b509593838311611db9575050611db391611da1611da6928895611dab611da685611da160018060801b0380951686613e0b565b613dbc565b614fb9565b981690613e0b565b90611a3b565b909550611da6919350611dee611df493611de860018060801b039889611de084829a61403d565b911690613e0b565b9261403d565b90613dbc565b611a3b565b965050506060853d606011611e49575b81611e1660609383613f89565b8101031261096657611e27856147a0565b94611e406040611e39602084016147a0565b92016147a0565b95909538611d6e565b3d9150611e09565b608460043501611e6681600435600401614211565b15905061203a57611e7e919250600435600401614211565b60a08282810103126109575760808282810103126109575760405191611ea383613f53565b604081838101031261096657604051611ebb81613f6e565b81356001600160a01b038116810361055757815260208201356020820152835260408101356020840152606081013560408401526080810135906001600160401b03821161124057828101601f83830101121561124057611f259281019101803590602001614196565b8151516001600160a01b039081167f00000000000000000000000000000000000000000000000000000000000000009091160361202857849160a08501519060405191611f7183613f6e565b30835260208301527f00000000000000000000000000000000000000000000000000000000000000006001600160a01b03163b15611244578391611fcb604051948593849363187945bd60e11b8552339160048601614243565b0381837f00000000000000000000000000000000000000000000000000000000000000006001600160a01b03165af1801561067b57612010575b505061198690611979565b61201990613f40565b612024578238612005565b8280fd5b60405163c1ab6dc160e01b8152600490fd5b50611986916120749030337f00000000000000000000000000000000000000000000000000000000000000006001600160a01b0316615af9565b611979565b8251602084015190859261208d8383615022565b8281939250116120a7575b5050505060e08301523861196c565b7f8e5703c89ed60e6afe48f00620414eda0a63ffb827cd6b0aee65b4cab51c6efc9394506120db604093926120fb9261403d565b94611da16120eb82600254615d29565b916120f6888461403d565b613e0b565b80600a5582519182526020820152a138808080612098565b604051636ef5bcdd60e11b8152600490fd5b9050611912565b905061214991506101803d61018011611d0b57611cf18183613f89565b505050505050505092509050386118d8565b6040513d6000823e3d90fd5b919092506080823d60801161219b575b8161218460809383613f89565b810103126104415750602081519101519138611877565b3d9150612177565b634e487b7160e01b600052604160045260246000fd5b60405163d17f4bd360e01b8152600490fd5b503461044157806003193601126104415760405190806004549160018360011c92600185169485156122b6575b60209586861081146122a257858852879493929187908215612280575050600114612244575b505061222c92500383613f89565b612240604051928284938452830190613d16565b0390f35b90859250600482528282205b85831061226857505061222c9350820101388061221e565b80548389018501528794508693909201918101612250565b925093505061222c94915060ff191682840152151560051b820101388061221e565b634e487b7160e01b83526022600452602483fd5b93607f16936121f8565b5034610441576040366003190112610441576122f86020916122e0613d79565b604051916122ed83613eef565b825260043590615641565b50604051908152f35b50346104415760603660031901126104415760043561231e613d79565b612326613e1e565b8284526015602052604084205490916001600160a01b039182163303610c04577f44013414411d9b618e7674007dae03364d11d6be08d121c1aef8aed60dce7c519260609233875260186020526040872086885260205260408720921691826000526020526123a58160406000209060ff801983541691151516179055565b60405191338352602083015215156040820152a280f35b50346104415780600319360112610441576005546040516001600160a01b039091168152602090f35b5034610441578060031936011261044157602060405163f33333338152f35b50346104415780600319360112610441576020601054604051908152f35b5034610441578060031936011261044157602063ffffffff60195460401c16604051908152f35b50346104415780600319360112610441576020600f54604051908152f35b5034610441578060031936011261044157602060405163199999998152f35b503461044157602036600319011261044157600435612240826124c86124c18260406124b06144e5565b509187815260126020522054615d29565b809461582d565b50909591156124fd575b604051958695869192608093969594919660a084019784526020840152604083015260608201520152565b80925061250c915085856159c1565b5090916124d2565b5034610441578060031936011261044157602060405163051eb8518152f35b50346104415780600319360112610441576040517f00000000000000000000000000000000000000000000000000000000000000006001600160a01b03168152602090f35b50346104415780600319360112610441576006546001600160a01b0333818316036125e2576001600160a01b031991821660065560058054339381168417909155167f8be0079c531659141344cd1fd0a4f28419497f9722a3daafe3b4186f6b6457e0600080a380f35b60405162461bcd60e51b815260206004820152602960248201527f4f776e61626c6532537465703a2063616c6c6572206973206e6f7420746865206044820152683732bb9037bbb732b960b91b6064820152608490fd5b50346104415761264836613e2d565b939190831580156128fe575b6121b9576016546128ec578360165561266b61446d565b50918484526020956015875260018060a01b0391826040872054169133831415806128c4575b610c0457837f00000000000000000000000000000000000000000000000000000000000000001694853b156128c05760405163095ea7b360e01b8082526001600160a01b0385166004830152602482018b90529594939291908981604481838c5af180156128b55761289e575b50918189809481946040519384928337810182815203925af161271f6141cd565b501561288c5760165496878114159081612861575b50612832575b506040516331a9108f60e11b815260048101879052908782602481875afa91821561095b5786926127fb575b5030911603610c0457813b156112445783916044839260405194859384928352600060048401528960248401525af18015611c00579083916127e7575b506127c291846127bc9252601286526040842054615d29565b8361582d565b505050156127d557601655604051908152f35b60405163e7da55cd60e01b8152600490fd5b6127f090613f40565b6112485781386127a3565b9091508781813d831161282b575b6128138183613f89565b8101031261096657612824906141fd565b9038612766565b503d612809565b855260188752604085208686528752604085203360005287526040600020600160ff198254161790553861273a565b9050818752601889526040872090875288526040862033600052885260ff6040600020541638612734565b6040516352e5bd8f60e01b8152600490fd5b6128ac909991929399613f40565b979190386126fe565b6040513d8c823e3d90fd5b8780fd5b508287526018895260408720888852895260408720338852895260ff60408820541615612691565b60405163558a1e0360e11b8152600490fd5b506001600160a01b03821683526017602052604083205460ff1615612654565b50346104415760206122f861293561042736613e2d565b91615641565b50346104415780600319360112610441576020600954604051908152f35b5034610441578060031936011261044157612972614415565b600680546001600160a01b031990811690915560058054918216905581906001600160a01b03167f8be0079c531659141344cd1fd0a4f28419497f9722a3daafe3b4186f6b6457e08280a380f35b5034610441576020366003190112610441576020906040906001600160a01b036129e8613d63565b1681528083522054604051908152f35b5034610441578060031936011261044157601a546040516001600160a01b039091168152602090f35b503461044157606036600319011261044157612a5a604091612a41613e1e565b835191612a4d83613eef565b8252602435600435615121565b82519182526020820152f35b503461044157806003193601126104415760206001600160401b0360195416604051908152f35b503461044157604036600319011261044157610437602091612aad613d79565b60405191612aba83613eef565b8252600435906153f2565b503461044157602036600319011261044157602090600435815260158252604060018060a01b0391205416604051908152f35b503461044157606036600319011261044157612b12613d63565b6001600160a01b036044358181169290839003611244579260ff92604092602095168252601885528282206024358352855282822090825284522054166040519015158152f35b503461044157608036600319011261044157612b73613e1e565b90606435906001600160401b038211610441576040612a5a84612ba3612b9c3660048801613d8f565b3691614196565b90602435600435615121565b50346104415760203660031901126104415760209060ff906040906001600160a01b03612bda613d63565b168152601784522054166040519015158152f35b50346104415780600319360112610441576020600854604051908152f35b5034610441578060031936011261044157602060405163e66666668152f35b503461044157806003193601126104415760c0612c466144e5565b612c508183615022565b612c5f84600895939554615d29565b93612c6c84600254615cb6565b604051958652602086015260408501526060840152608083015260a0820152f35b5034610441576020366003190112610441576020906040906001600160a01b03612cb5613d63565b168152601383522054604051908152f35b613d3b565b50346104415780600319360112610441576020600b54604051908152f35b5034610441578060031936011261044157602060405163028f5c288152f35b50346104415780600319360112610441576020601154604051908152f35b503461044157602036600319011261044157612d40613d63565b50602061079f614136565b503461044157602036600319011261044157612d65613ce0565b612d6d614415565b63ffffffff81169063028f5c2882106116a1576019805463ffffffff60601b191660609290921b63ffffffff60601b169190911790556040519081527f40b8b8da066122f1e5b938f166c21076e763950b2b489a4205edfd641a9c112490602090a180f35b5034610441576040366003190112610441576113b090612e1b612df3613d63565b9133815260016020526040812060018060a01b03841682526020526040602435912054614030565b9033614622565b50346104415780600319360112610441576040517f00000000000000000000000000000000000000000000000000000000000000006001600160a01b03168152602090f35b503461044157610100366003190112610441578081906016546121b9576004358084526020906015825260018060a01b03938460408720541694338603610c0457612eb061446d565b50946001600160801b039283612ec461404a565b166131ee575b9783612f64989981612eda6140dd565b948180612ee5614060565b16036131d8575080915b8180612ef9614076565b16036131bb575080915b8660405196612f1188613f25565b8a8852168a8701521660408501521660608301526040837f000000000000000000000000000000000000000000000000000000000000000016928151809a819263fc6f786560e01b8352600483016140f3565b038184865af19687156131ae5781988298613185575b50612f9090868352601288526040832054615d29565b6040516301cc23a760e31b8152600481018790527f00000000000000000000000000000000000000000000000000000000000000006001600160a01b0316602482015290926080826044817f000000000000000000000000000000000000000000000000000000000000000089165afa918215611c00578392613151575b50604051809163133f757160e31b82528860048301528160246101809384935afa9182156131465761307d939291879186918794613117575b50501684526007895263ffffffff90868260408720541691168552816040862054169081811160001461311057505b1690615ba9565b9063f3333333918281029281840414901517156130fc5750851c106127d5576040967fd26a2a5f7b40ef9667719719e2ef95bf8efa17c5bb9e145975ab198f55ca06f49260a0926130cc6140dd565b906130d561404a565b918b5194855216878401521688820152866060820152856080820152a28351928352820152f35b634e487b7160e01b81526011600452602490fd5b9050613076565b61313293945080919250903d10611d0b57611cf18183613f89565b505050505050505093925090503880613047565b6040513d86823e3d90fd5b9091506080813d60801161317d575b8161316d60809383613f89565b810103126120245751903861300e565b3d9150613160565b612f9099506131a491985060403d604011611bf957611be98183613f89565b9890989790612f7a565b50604051903d90823e3d90fd5b611da66131d291836131cb614076565b1690614030565b91612f03565b611da66131e891836131cb614060565b91612eef565b505061324260406131fd61404a565b8482519161320a83613f0a565b878352168782015260443582820152606435606082015260c4356080820152815180938192630624e65f60e11b8352600483016140a2565b03818b867f0000000000000000000000000000000000000000000000000000000000000000165af180156132b0579783612f6498998293839161328b575b509199985050612eca565b90506132a791935060403d604011611bf957611be98183613f89565b92909238613280565b6040513d8a823e3d90fd5b5034610441576020366003190112610441577fb72d36542c9b761c0d9b215bddd7b59c055dd4fb2f6c5da22e964720458ddff160206132f8613d63565b613300614415565b601a80546001600160a01b0319166001600160a01b03929092169182179055604051908152a180f35b5034610441578060031936011261044157602060405160ff7f0000000000000000000000000000000000000000000000000000000000000000168152f35b5034610441576060366003190112610441576113b0613384613d63565b61338c613d79565b6044359161339b833383614dc5565b614e5d565b5034610441576020366003190112610441576060906040906001600160a01b036133c8613d63565b1681526007602052205463ffffffff906040519180821683528160201c16602083015260401c6040820152f35b50346104415780600319360112610441576020600254604051908152f35b50346104415760803660031901126104415761342d613d63565b50613436613d79565b604435916064356001600160401b03811161124857613459903690600401613d8f565b926001600160a01b0391907f0000000000000000000000000000000000000000000000000000000000000000831633811480159061379d575b61378b5761349e61446d565b601654919291908161354257505050509380613511575b505091604091600080516020615f3e8339815191529383516134d681613eef565b8281528683526012602052848320905190556134f28684614b01565b8351921682526020820152a25b604051630a85bd0160e11b8152602090f35b8192945090602091810103126112485735828116809103611248579181600080516020615f3e8339815191526134b5565b9350959491978691975080945003613561575b505050505050506134ff565b848452836135de838960209860158a5287600080516020615f3e833981519152828c60128a60408b2054169185601655528d6040808b20549a60128251936135a885613eef565b8d85528883525220905190556135be8482614b01565b604080516001600160a01b039290921682526020820192909252a2614b89565b806135ea575b50613555565b60405196879463133f757160e31b865260048601528460246101809687935afa968715611cca578594869861374a575b505081613691939261362e61368993615d42565b9516978887526007885261366e6040882061364d88825460401c614861565b81546001600160401b031660409190911b67ffffffffffffffff1916179055565b16938486526007875261364d6040872091825460401c614861565b600254615d29565b9382526007835260408220549163ffffffff928381861c16878582109283613725575b5050506136ec576040918152600784522054938185841c1691821094856136fe575b50505050506136ec5738808080808080806135e4565b604051630f4c526560e01b8152600490fd5b61371893949550906137129160401c615d29565b93613e0b565b901c1038808080806136d6565b61373f929350906137389160401c615d29565b9187613e0b565b851c103887816136b4565b61368992985061362e9550926137728192856136919796903d10611d0b57611cf18183613f89565b505050505050505098925090509699935050929361361a565b604051630d348b9b60e41b8152600490fd5b503084831614613492565b50346104415780600319360112610441576040517f00000000000000000000000000000000000000000000000000000000000000006001600160a01b03168152602090f35b50346104415760403660031901126104415760043560243581151580613b46575b80613b30575b828452601560205260408420546001600160a01b039081169115908180613b26575b610c045761384261446d565b61384e81949294614724565b868852601260205260408820936138658188615cfb565b94613871868254614030565b80915561388086600854614030565b8060085561389083600b54615c2c565b10613b145760115492838911156138b35760405163de6724b560e01b8152600490fd5b816138da916138c58b6138df9761403d565b6011556138d2898361403d565b90858d614893565b615d29565b90600d548210613b0257613957575b5090836139437fbf608caf5cc20aaeea74ecfce286b511362b0ecbaa0e56ded00f76f7e2e39c44956060959433907f000000000000000000000000000000000000000000000000000000000000000016614abe565b60405192835260208301526040820152a280f35b6040516301cc23a760e31b8152600481018790527f00000000000000000000000000000000000000000000000000000000000000006001600160a01b03166024820152919392916080816044817f000000000000000000000000000000000000000000000000000000000000000089165afa9081156132b0578891613ad0575b5060405163133f757160e31b815260048101889052610180919082816024817f00000000000000000000000000000000000000000000000000000000000000008b165afa9081156128b557613a679388918c918d94613aa1575b5050168a52600760205263ffffffff90878260408d20541691168b528160408c2054169081811160001461311057501690615ba9565b63f333333390818102918183041490151715613a8d5760201c106127d5579091386138ee565b634e487b7160e01b88526011600452602488fd5b613abc93945080919250903d10611d0b57611cf18183613f89565b505050505050505093925090503880613a31565b90506080813d608011613afa575b81613aeb60809383613f89565b810103126128c05751386139d7565b3d9150613ade565b604051630313af9b60e01b8152600490fd5b6040516378799b5160e01b8152600490fd5b5033831415613836565b50338352601760205260ff604084205416613814565b50816016541461380e565b503461044157602036600319011261044157602061079f613b706144e5565b9050600435615cfb565b5034610441576040366003190112610441576113b0613b97613d63565b6024359033614622565b503461044157806003193601126104415760405190806003549160018360011c9260018516948515613c3d575b60209586861081146122a257858852879493929187908215612280575050600114613c0157505061222c92500383613f89565b90859250600382528282205b858310613c2557505061222c9350820101388061221e565b80548389018501528794508693909201918101613c0d565b93607f1693613bce565b5034610441578060031936011261044157602061079f613faa565b5034610441576020366003190112610441577f43c05d541e7400b8570cf6d3a9daa912d6fc6ff8ec51aa377477c3b8882738ba6020613c9f613ce0565b613ca7614415565b613caf61446d565b505060195463ffffffff60401b8260401b169063ffffffff60401b19161760195563ffffffff60405191168152a180f35b6004359063ffffffff8216820361055757565b60005b838110613d065750506000910152565b8181015183820152602001613cf6565b90602091613d2f81518092818552858086019101613cf3565b601f01601f1916010190565b3461055757602036600319011261055757602061079f613d596144e5565b9050600435615cb6565b600435906001600160a01b038216820361055757565b602435906001600160a01b038216820361055757565b9181601f84011215610557578235916001600160401b038311610557576020838186019501011161055757565b8115613dc6570490565b634e487b7160e01b600052601260045260246000fd5b90631999999991828102928184041490151715613df557565b634e487b7160e01b600052601160045260246000fd5b81810292918115918404141715613df557565b60443590811515820361055757565b606060031982011261055757600435916024356001600160a01b03811681036105575791604435906001600160401b03821161055757613e6f91600401613d8f565b9091565b3461055757600036600319011261055757602060405163199999998152f35b606090600319011261055757600435906001600160a01b03906024358281168103610557579160443590811681036105575790565b3461055757602036600319011261055757602061079f613ee56144e5565b9050600435615c2c565b602081019081106001600160401b038211176121a357604052565b60a081019081106001600160401b038211176121a357604052565b608081019081106001600160401b038211176121a357604052565b6001600160401b0381116121a357604052565b606081019081106001600160401b038211176121a357604052565b604081019081106001600160401b038211176121a357604052565b90601f801991011681019081106001600160401b038211176121a357604052565b6040516370a0823160e01b81523060048201526020816024817f00000000000000000000000000000000000000000000000000000000000000006001600160a01b03165afa90811561215b57600091614001575090565b90506020813d602011614028575b8161401c60209383613f89565b81010312610557575190565b3d915061400f565b91908201809211613df557565b91908203918211613df557565b6024356001600160801b03811681036105575790565b6084356001600160801b03811681036105575790565b60a4356001600160801b03811681036105575790565b9190826040910312610557576020825192015190565b91909160808060a083019480518452600180831b03602082015116602085015260408101516040850152606081015160608501520151910152565b60e4356001600160a01b03811681036105575790565b815181526020808301516001600160a01b0316908201526040808301516001600160801b0390811691830191909152606092830151169181019190915260800190565b61414b6141416144e5565b9050600254615d29565b600c549081811061415d575050600090565b6141669161403d565b600f549081811115614176575090565b905090565b6001600160401b0381116121a357601f01601f191660200190565b9291926141a28261417b565b916141b06040519384613f89565b829481845281830111610557578281602093846000960137010152565b3d156141f8573d906141de8261417b565b916141ec6040519384613f89565b82523d6000602084013e565b606090565b51906001600160a01b038216820361055757565b903590601e198136030182121561055757018035906001600160401b0382116105575760200191813603831361055757565b815180516001600160a01b03168252602090810151908201526142b79493610100939192909161429b9160409060208181015187840152910151606086015281516001600160a01b03166080860152015160a0840152565b6001600160a01b031660c082015260e081018290520190613d16565b90565b80548210156142d25760005260206000200190600090565b634e487b7160e01b600052603260045260246000fd5b6001600160401b0381116121a35760051b60200190565b80518210156142d25760209160051b010190565b61431b6144e5565b905061432981600254615d29565b600c549081811061433c57505050600090565b6143459161403d565b600f5491908281111561435c57506142b791615c2c565b6142b79250615c2c565b6001600160a01b0391821681529116602082015260408101919091526080606082018190526142b792910190613d16565b6143c96143a26144e5565b909260018060a01b031660005260006020526143c381604060002054615cb6565b92615022565b5081811115614176575090565b6144096143e16144e5565b909260018060a01b031660005260006020526144038160406000205494615022565b50615c2c565b81811115614176575090565b6005546001600160a01b0316330361442957565b606460405162461bcd60e51b815260206004820152602060248201527f4f776e61626c653a2063616c6c6572206973206e6f7420746865206f776e65726044820152fd5b6019546001600160401b03918282164211156144d8577f8e5703c89ed60e6afe48f00620414eda0a63ffb827cd6b0aee65b4cab51c6efc60406144ae6144e5565b809582978360095582600a554216906001600160401b0319161760195582519182526020820152a1565b91505060095490600a5490565b60095490600a54601954906001600160401b03821693614505854261403d565b948515159081614618575b5015614611576145208282615022565b509061452e81600854615d29565b60408051633af106e560e01b8152600481019490945260248401919091529182816044817f00000000000000000000000000000000000000000000000000000000000000006001600160a01b03165afa948515614606576000916000966145e5575b5063ffffffff64010000000091851c168103908111613df5576145d66145dd936145ce6145c36120f6946142b79a615ba9565b946120f68c84613e0b565b861c90614030565b9785613e0b565b901c90614030565b9095506145ff9150833d8511611bf957611be98183613f89565b9438614590565b83513d6000823e3d90fd5b9350919050565b9050151538614510565b6001600160a01b039081169182156146d357169182156146835760207f8c5be1e5ebec7d5bd14f71427d1e84f3dd0314c0f7b2291e5b200ac8c7c3b925918360005260018252604060002085600052825280604060002055604051908152a3565b60405162461bcd60e51b815260206004820152602260248201527f45524332303a20617070726f766520746f20746865207a65726f206164647265604482015261737360f01b6064820152608490fd5b60405162461bcd60e51b8152602060048201526024808201527f45524332303a20617070726f76652066726f6d20746865207a65726f206164646044820152637265737360e01b6064820152608490fd5b62015180420463ffffffff9160195492808460a01c169083161161474757505050565b61150061475691600254615d29565b6010549060201c8082111561478b57505b60115563ffffffff60a01b1990911660a09190911b63ffffffff60a01b1617601955565b9050614767565b51908160020b820361055757565b51906001600160801b038216820361055757565b9190826101809103126105575781516bffffffffffffffffffffffff8116810361055757916147e5602082016141fd565b916147f2604083016141fd565b916147ff606082016141fd565b91608082015162ffffff81168103610557579161481e60a08201614792565b9161482b60c08301614792565b9161483860e082016147a0565b9161010082015191610120810151916142b761016061485a61014085016147a0565b93016147a0565b6001600160c01b039182169082160191908211613df557565b6001600160c01b039182169082160391908211613df557565b90939291928083036148a7575b5050505050565b6040805163133f757160e31b8152600481019390935294610180946001600160a01b0394919086856024817f00000000000000000000000000000000000000000000000000000000000000008a165afa948515614ab357600097600096614a81575b505083831115614971575050918361493261492d61364d969461496799989661403d565b615d42565b931660005260076020526149508560002061364d858254891c61487a565b16600052600760205282600020928354901c61487a565b38808080806148a0565b9095928561498861492d6149c6956136899461403d565b94169586600052602095600787526149ab8a60002061364d888d8354901c614861565b1693846000526007865261364d896000209182548b1c614861565b926000526007825284600020549063ffffffff918281851c16868482109283614a5d575b505050614a4c57600052600782528460002054938185841c169182109485614a2c575b5050505050614a1c5750614967565b51630f4c526560e01b8152600490fd5b614a3f939495509061371291871c615d29565b901c103880808080614a0d565b8551630f4c526560e01b8152600490fd5b614a7692935090614a6f918a1c615d29565b9186613e0b565b841c103886816149ea565b614a9d9398508091929650903d10611d0b57611cf18183613f89565b5050505050505050979250905095933880614909565b88513d6000823e3d90fd5b60405163a9059cbb60e01b60208201526001600160a01b03929092166024830152604480830193909352918152614aff91614afa606483613f89565b615dab565b565b6001600160a01b03166000818152601360208181526040808420805487865260148452918520829055858552929091529293919290600160401b821015614b755782610bb283614b5a93600160409897960181556142ba565b815260156020522080546001600160a01b0319169091179055565b634e487b7160e01b84526041600452602484fd5b91906000928084526020916012835260409384862054918215159182614bba575b5050505090601291845252812055565b865163133f757160e31b8152600481018690529397610180946001600160a01b0394909391929086856024817f00000000000000000000000000000000000000000000000000000000000000008a165afa948515614dbb5784978596614d89575b505015614c795750509160129594939181614c39614c6f959a615d42565b931660005260078652614c568860002061364d8582548c1c61487a565b166000526007845261364d86600020918254881c61487a565b9091388080614baa565b909484889594614cb28b61364d61368995889f896007614c9e8693614ccb9d03615d42565b9c8d94169d8e83525220928354901c614861565b1693848b526007895261364d8a8c209182548c1c614861565b91875260078552858720549063ffffffff918281881c16858482109283614d65575b505050614d545787526007855285872054928184871c169182109384614d30575b50505050614d1f5790601291614c6f565b8251630f4c526560e01b8152600490fd5b614d4893945090614d4291881c615d29565b92613e0b565b831c1038808080614d0e565b8651630f4c526560e01b8152600490fd5b614d7e92935090614d77918b1c615d29565b9185613e0b565b871c10388581614ced565b614da59398508091929650903d10611d0b57611cf18183613f89565b5050505050505050979250905095933880614c1b565b8a513d86823e3d90fd5b9060018060a01b0380831660005260016020526040600020908216600052602052604060002054926000198403614dfd575b50505050565b808410614e1857614e0f930391614622565b38808080614df7565b60405162461bcd60e51b815260206004820152601d60248201527f45524332303a20696e73756666696369656e7420616c6c6f77616e63650000006044820152606490fd5b6001600160a01b03908116918215614f665716918215614f1557600082815280602052604081205491808310614ec15760408282600080516020615f5e833981519152958760209652828652038282205586815220818154019055604051908152a3565b60405162461bcd60e51b815260206004820152602660248201527f45524332303a207472616e7366657220616d6f756e7420657863656564732062604482015265616c616e636560d01b6064820152608490fd5b60405162461bcd60e51b815260206004820152602360248201527f45524332303a207472616e7366657220746f20746865207a65726f206164647260448201526265737360e81b6064820152608490fd5b60405162461bcd60e51b815260206004820152602560248201527f45524332303a207472616e736665722066726f6d20746865207a65726f206164604482015264647265737360d81b6064820152608490fd5b6001600160801b0390818111614fcd571690565b60405162461bcd60e51b815260206004820152602760248201527f53616665436173743a2076616c756520646f65736e27742066697420696e20316044820152663238206269747360c81b6064820152608490fd5b919061504461503b615032613faa565b94600854615d29565b91600254615d29565b8061504f8386614030565b1115615067576150626142b79285614030565b61403d565b5050600090565b919082810360a081126105575760808112610557576040918280519261509384613f53565b12610557578251916150a483613f6e565b6150ad866141fd565b8352602092838701518482015281528386015183820152606086015184820152946080810151906001600160401b038211610557570181601f82011215610557578051916151066150fd8461417b565b95519586613f89565b82855283838301011161055757826142b79385019101613cf3565b9390919361512d61446d565b600061513882614724565b83815260209260128452604092838320998a54906000146153df5761515d838a615d29565b995b89156153ce57818a116153ae575b908a9b8a9b9798999a9288615247575b506151c19061518c848461403d565b948580925561519d8560085461403d565b6008556151ac8a601154614030565b6011556151b98583614030565b90878d614893565b03615218575b5050917f9181b2981704b7cf4448130f29cb5da1f41e0418d000e7f8880000b09bcbea459391838660809552601584528160018060a01b0391205416815193338552840152820152856060820152a2565b61522492939450615d29565b600d54116152365790869138806151c7565b8151630313af9b60e01b8152600490fd5b91939495969790928251151560001461536557505080888061526e9351830101910161506e565b8151519091906001600160a01b039081167f0000000000000000000000000000000000000000000000000000000000000000821603615354577f000000000000000000000000000000000000000000000000000000000000000016908d8951906152d782613f6e565b3082528b820152823b15615350579161530c93918980948c519687958694859363187945bd60e11b8552339160048601614243565b03925af1801561534657918c9796959493918c93615331575b506151c1905b9061517d565b9561533f6151c19297613f40565b9590615325565b87513d88823e3d90fd5b8880fd5b885163c1ab6dc160e01b8152600490fd5b90979695949390929091506151c1906153a98930337f00000000000000000000000000000000000000000000000000000000000000006001600160a01b0316615af9565b61532b565b9596979850809950896153c284839c615d29565b9a50909897969561516d565b85516312278dfb60e01b8152600490fd5b6153ec838a9b9a9b615c2c565b9861515f565b9192906153fd61446d565b93905061540984615b3b565b81946154256154188685615c2c565b956138da87600254614030565b600c541061562f57600f5480841161561d57836154419161403d565b600f558051156155e2578060208061545e9351830101910161506e565b8151516001600160a01b039081167f0000000000000000000000000000000000000000000000000000000000000000821603612028577f00000000000000000000000000000000000000000000000000000000000000001690604051916154c483613f6e565b308352856020840152803b15610557576154fb93600080946040519687958694859363187945bd60e11b8552339160048601614243565b03925af1801561215b576155d3575b505b6001600160a01b031690811561558e5761552884600254614030565b6002558160005260006020526040600020848154019055816000600080516020615f5e8339815191526020604051888152a36040519081528360208201527fdcbc1c05240f31ff3ad067ef1ee35ce4997762752e3a095284754544f4c709d760403392a3565b60405162461bcd60e51b815260206004820152601f60248201527f45524332303a206d696e7420746f20746865207a65726f2061646472657373006044820152606490fd5b6155dc90613f40565b3861550a565b506156188230337f00000000000000000000000000000000000000000000000000000000000000006001600160a01b0316615af9565b61550c565b60405163bc54a78760e01b8152600490fd5b6040516304d0d85960e51b8152600490fd5b92909261564c61446d565b94905060009161565b86615b3b565b819461567761566a8885615d29565b976138da85600254614030565b600c541061562f57600f5480881161561d57876156939161403d565b600f558051156157f257806020806156b09351830101910161506e565b8151519091906001600160a01b039081167f0000000000000000000000000000000000000000000000000000000000000000821603612028577f0000000000000000000000000000000000000000000000000000000000000000169060405161571881613f6e565b308152896020820152823b15611240579161575093918780946040519687958694859363187945bd60e11b8552339160048601614243565b03925af18015613146576157df575b505b6001600160a01b031691821561558e57829061577f83600254614030565b6002558181528060205260408120838154019055600080516020615f5e8339815191526020604051858152a36040519085825260208201527fdcbc1c05240f31ff3ad067ef1ee35ce4997762752e3a095284754544f4c709d760403392a3565b6157eb90939193613f40565b913861575f565b506158288630337f00000000000000000000000000000000000000000000000000000000000000006001600160a01b0316615af9565b615761565b604080516301cc23a760e31b8152600481018390526001600160a01b037f00000000000000000000000000000000000000000000000000000000000000008116602483015292949391906080816044817f000000000000000000000000000000000000000000000000000000000000000088165afa80156159b657600091829161597c575b5091819481519763133f757160e31b89526004890152610180908189602481847f0000000000000000000000000000000000000000000000000000000000000000165afa91821561460657615948959697989960009160009461594f575b50508116600052600760205263ffffffff92839182826000205416931660005260002054169081811160001461311057501690615ba9565b9182101593565b8394506159689250803d10611d0b57611cf18183613f89565b505050505050505094925090509038615910565b9190506080823d6080116159ae575b8161599860809383613f89565b81010312610441575060208151910151386158b2565b3d915061598b565b82513d6000823e3d90fd5b90916000916000918194640119999999808402908482041484151715615ae55760201c91828210615aaa578015615aa25782611de8615a0492611da18588613e0b565b918260601b91600160601b93808404851490151715615a8e57615a2b9291611dee9161403d565b8103908111615a7a5763147ae1489080820291820403615a7a5760601c63051eb85181810110615a7a576401051eb851019182640100000000116130fc575090615a7491613e0b565b60201c92565b634e487b7160e01b83526011600452602483fd5b634e487b7160e01b86526011600452602486fd5b505091505092565b509450509391506142b790615abe85613ddc565b60201c80851115615add57615ad491508461403d565b80935b9461403d565b508093615ad7565b634e487b7160e01b85526011600452602485fd5b6040516323b872dd60e01b60208201526001600160a01b039283166024820152929091166044830152606480830193909352918152614aff91614afa82613f0a565b62015180420463ffffffff9160195492808460801c1690831611615b5e57505050565b611500615b6d91600254615d29565b600e549060201c80821115615ba257505b600f5563ffffffff60801b1990911660809190911b63ffffffff60801b1617601955565b9050615b7e565b6000198282099082810292838084109303928084039314615c23576401000000009183831115615be6570990828211900360e01b910360201c1790565b60405162461bcd60e51b81526020600482015260156024820152744d6174683a206d756c446976206f766572666c6f7760581b6044820152606490fd5b50505060201c90565b90600160601b90600019828409928060601b92838086109503948086039514615ca95784831115615be6578291096001821901821680920460028082600302188083028203028083028203028083028203028083028203028083028203028092029003029360018380600003040190848311900302920304170290565b5050906142b79250613dbc565b6000198282099082810292838084109303928084039314615cf257600160601b9183831115615be6570990828211900360a01b910360601c1790565b50505060601c90565b90615d068183615c2c565b918115613dc657600160601b9009615d1b5790565b60018101809111613df55790565b615d338282615cb6565b91600160601b9109615d1b5790565b6001600160c01b0390818111615d56571690565b60405162461bcd60e51b815260206004820152602760248201527f53616665436173743a2076616c756520646f65736e27742066697420696e20316044820152663932206269747360c81b6064820152608490fd5b60018060a01b031690615e0a604051615dc381613f6e565b6020938482527f5361666545524332303a206c6f772d6c6576656c2063616c6c206661696c6564858301526000808587829751910182855af1615e046141cd565b91615ea0565b805191821591848315615e7c575b505050905015615e255750565b6084906040519062461bcd60e51b82526004820152602a60248201527f5361666545524332303a204552433230206f7065726174696f6e20646964206e6044820152691bdd081cdd58d8d9595960b21b6064820152fd5b91938180945001031261124857820151908115158203610441575080388084615e18565b91929015615f025750815115615eb4575090565b3b15615ebd5790565b60405162461bcd60e51b815260206004820152601d60248201527f416464726573733a2063616c6c20746f206e6f6e2d636f6e74726163740000006044820152606490fd5b825190915015615f155750805190602001fd5b60405162461bcd60e51b815260206004820152908190615f39906024830190613d16565b0390fdfee5b6779c4a18cbf7e4bce3a6c308b215c678f316648b832318a03841664fc2e9ddf252ad1be2c89b69c2b068fc378daa952ba7f163c4a11628f55a4df523b3efa26469706673582212209f5a9f2ca5f474ee61439645de231c5187bf9646fd3cba9ca4a7be328ff4589a64736f6c63430008180033",
    "linkReferences": {}
  },
  "methodIdentifiers": {
    "BORROW_SAFETY_BUFFER_X32()": "87e92dbf",
    "MAX_COLLATERAL_FACTOR_X32()": "51a40da3",
    "MAX_DAILY_DEBT_INCREASE_X32()": "a628a9c0",
    "MAX_DAILY_LEND_INCREASE_X32()": "ddd8aafe",
    "MAX_LIQUIDATION_PENALTY_X32()": "841c8983",
    "MIN_LIQUIDATION_PENALTY_X32()": "81b8a2da",
    "MIN_RESERVE_PROTECTION_FACTOR_X32()": "464744cc",
    "acceptOwnership()": "79ba5097",
    "allowance(address,address)": "dd62ed3e",
    "approve(address,uint256)": "095ea7b3",
    "approveTransform(uint256,address,bool)": "936b8dd0",
    "asset()": "38d52e0f",
    "balanceOf(address)": "70a08231",
    "borrow(uint256,uint256)": "0ecbcdab",
    "convertToAssets(uint256)": "07a2d13a",
    "convertToShares(uint256)": "c6e6f592",
    "create(uint256,address)": "f01fe692",
    "createWithPermit(uint256,address,uint256,uint8,bytes32,bytes32)": "cabd329f",
    "dailyDebtIncreaseLimitLastReset()": "b0ea65e6",
    "dailyDebtIncreaseLimitLeft()": "4483f8a1",
    "dailyDebtIncreaseLimitMin()": "87c5ac6f",
    "dailyLendIncreaseLimitLastReset()": "a95558aa",
    "dailyLendIncreaseLimitLeft()": "8518da61",
    "dailyLendIncreaseLimitMin()": "cd2fc4f7",
    "debtSharesTotal()": "5b81aaf2",
    "decimals()": "313ce567",
    "decreaseAllowance(address,uint256)": "a457c2d7",
    "decreaseLiquidityAndCollect((uint256,uint128,uint256,uint256,uint128,uint128,uint256,address))": "3767ecaf",
    "deposit(uint256,address)": "6e553f65",
    "deposit(uint256,address,bytes)": "faa9bce9",
    "emergencyAdmin()": "70905dce",
    "factory()": "c45a0155",
    "globalDebtLimit()": "4ac17015",
    "globalLendLimit()": "be757d06",
    "increaseAllowance(address,uint256)": "39509351",
    "interestRateModel()": "f3fdb15a",
    "lastDebtExchangeRateX96()": "729dbda1",
    "lastExchangeRateUpdate()": "6fcf2e09",
    "lastLendExchangeRateX96()": "ebdab50c",
    "lendInfo(address)": "d4759f06",
    "liquidate((uint256,uint256,uint256,address,bytes,uint256))": "9642370c",
    "loanAtIndex(address,uint256)": "9bcf51fe",
    "loanCount(address)": "4f0564a8",
    "loanInfo(uint256)": "8349d6be",
    "loans(uint256)": "e1ec3c68",
    "maxDeposit(address)": "402d267d",
    "maxMint(address)": "c63d75b6",
    "maxRedeem(address)": "d905777e",
    "maxWithdraw(address)": "ce96cb77",
    "minLoanSize()": "cf09b4ae",
    "mint(uint256,address)": "94bf804d",
    "mint(uint256,address,bytes)": "73c02519",
    "multicall(bytes[])": "ac9650d8",
    "name()": "06fdde03",
    "nonfungiblePositionManager()": "b44a2722",
    "onERC721Received(address,address,uint256,bytes)": "150b7a02",
    "oracle()": "7dc0d1d0",
    "owner()": "8da5cb5b",
    "ownerOf(uint256)": "6352211e",
    "pendingOwner()": "e30c3978",
    "permit2()": "12261ee7",
    "previewDeposit(uint256)": "ef8b30f7",
    "previewMint(uint256)": "b3d7f6b9",
    "previewRedeem(uint256)": "4cdad506",
    "previewWithdraw(uint256)": "0a28a477",
    "redeem(uint256,address,address)": "ba087652",
    "remove(uint256,address,bytes)": "be7ae9aa",
    "renounceOwnership()": "715018a6",
    "repay(uint256,uint256,bool)": "6fd52298",
    "repay(uint256,uint256,bool,bytes)": "5d76e198",
    "reserveFactorX32()": "879f4130",
    "reserveProtectionFactorX32()": "dd6dc332",
    "setEmergencyAdmin(address)": "35da3394",
    "setLimits(uint256,uint256,uint256,uint256,uint256)": "a2f182d4",
    "setReserveFactor(uint32)": "01de9ba8",
    "setReserveProtectionFactor(uint32)": "3d4b6b64",
    "setTokenConfig(address,uint32,uint32)": "f30a0a79",
    "setTransformer(address,bool)": "9995dfd8",
    "symbol()": "95d89b41",
    "tokenConfigs(address)": "1b69dc5f",
    "totalAssets()": "01e1d114",
    "totalSupply()": "18160ddd",
    "transfer(address,uint256)": "a9059cbb",
    "transferFrom(address,address,uint256)": "23b872dd",
    "transferOwnership(address)": "f2fde38b",
    "transform(uint256,address,bytes)": "78cc7644",
    "transformApprovals(address,uint256,address)": "625138ef",
    "transformedTokenId()": "ae41abab",
    "transformerAllowList(address)": "5ced8385",
    "vaultInfo()": "501ec738",
    "withdraw(uint256,address,address)": "b460af94",
    "withdrawReserves(uint256,address)": "ab379949"
  },
  "id": 42
}